{
  "contractName": "Adspot",
  "abi": [
    {
      "inputs": [],
      "stateMutability": "nonpayable",
      "type": "constructor"
    },
    {
      "anonymous": false,
      "inputs": [
        {
          "indexed": true,
          "internalType": "address",
          "name": "owner",
          "type": "address"
        },
        {
          "indexed": true,
          "internalType": "address",
          "name": "approved",
          "type": "address"
        },
        {
          "indexed": true,
          "internalType": "uint256",
          "name": "tokenId",
          "type": "uint256"
        }
      ],
      "name": "Approval",
      "type": "event"
    },
    {
      "anonymous": false,
      "inputs": [
        {
          "indexed": true,
          "internalType": "address",
          "name": "owner",
          "type": "address"
        },
        {
          "indexed": true,
          "internalType": "address",
          "name": "operator",
          "type": "address"
        },
        {
          "indexed": false,
          "internalType": "bool",
          "name": "approved",
          "type": "bool"
        }
      ],
      "name": "ApprovalForAll",
      "type": "event"
    },
    {
      "anonymous": false,
      "inputs": [
        {
          "indexed": true,
          "internalType": "address",
          "name": "from",
          "type": "address"
        },
        {
          "indexed": true,
          "internalType": "address",
          "name": "to",
          "type": "address"
        },
        {
          "indexed": true,
          "internalType": "uint256",
          "name": "tokenId",
          "type": "uint256"
        }
      ],
      "name": "Transfer",
      "type": "event"
    },
    {
      "inputs": [
        {
          "internalType": "address",
          "name": "",
          "type": "address"
        }
      ],
      "name": "adSpotOwnerBalance",
      "outputs": [
        {
          "internalType": "uint256",
          "name": "",
          "type": "uint256"
        }
      ],
      "stateMutability": "view",
      "type": "function",
      "constant": true
    },
    {
      "inputs": [
        {
          "internalType": "uint256",
          "name": "",
          "type": "uint256"
        }
      ],
      "name": "adSpotToOwner",
      "outputs": [
        {
          "internalType": "address",
          "name": "",
          "type": "address"
        }
      ],
      "stateMutability": "view",
      "type": "function",
      "constant": true
    },
    {
      "inputs": [],
      "name": "adspotCount",
      "outputs": [
        {
          "internalType": "uint256",
          "name": "",
          "type": "uint256"
        }
      ],
      "stateMutability": "view",
      "type": "function",
      "constant": true
    },
    {
      "inputs": [
        {
          "internalType": "address",
          "name": "owner",
          "type": "address"
        }
      ],
      "name": "balanceOf",
      "outputs": [
        {
          "internalType": "uint256",
          "name": "",
          "type": "uint256"
        }
      ],
      "stateMutability": "view",
      "type": "function",
      "constant": true
    },
    {
      "inputs": [
        {
          "internalType": "uint256",
          "name": "tokenId",
          "type": "uint256"
        }
      ],
      "name": "getApproved",
      "outputs": [
        {
          "internalType": "address",
          "name": "",
          "type": "address"
        }
      ],
      "stateMutability": "view",
      "type": "function",
      "constant": true
    },
    {
      "inputs": [
        {
          "internalType": "uint256",
          "name": "",
          "type": "uint256"
        }
      ],
      "name": "idToAdSpot",
      "outputs": [
        {
          "internalType": "address",
          "name": "owner",
          "type": "address"
        },
        {
          "internalType": "uint256",
          "name": "pricePerDay",
          "type": "uint256"
        },
        {
          "internalType": "uint8",
          "name": "maxAds",
          "type": "uint8"
        }
      ],
      "stateMutability": "view",
      "type": "function",
      "constant": true
    },
    {
      "inputs": [
        {
          "internalType": "address",
          "name": "owner",
          "type": "address"
        },
        {
          "internalType": "address",
          "name": "operator",
          "type": "address"
        }
      ],
      "name": "isApprovedForAll",
      "outputs": [
        {
          "internalType": "bool",
          "name": "",
          "type": "bool"
        }
      ],
      "stateMutability": "view",
      "type": "function",
      "constant": true
    },
    {
      "inputs": [],
      "name": "name",
      "outputs": [
        {
          "internalType": "string",
          "name": "",
          "type": "string"
        }
      ],
      "stateMutability": "view",
      "type": "function",
      "constant": true
    },
    {
      "inputs": [
        {
          "internalType": "address",
          "name": "",
          "type": "address"
        }
      ],
      "name": "ownerAdSpotCount",
      "outputs": [
        {
          "internalType": "uint256",
          "name": "",
          "type": "uint256"
        }
      ],
      "stateMutability": "view",
      "type": "function",
      "constant": true
    },
    {
      "inputs": [
        {
          "internalType": "uint256",
          "name": "tokenId",
          "type": "uint256"
        }
      ],
      "name": "ownerOf",
      "outputs": [
        {
          "internalType": "address",
          "name": "",
          "type": "address"
        }
      ],
      "stateMutability": "view",
      "type": "function",
      "constant": true
    },
    {
      "inputs": [
        {
          "internalType": "uint256",
          "name": "",
          "type": "uint256"
        }
      ],
      "name": "requestsInAdspot",
      "outputs": [
        {
          "internalType": "uint256",
          "name": "",
          "type": "uint256"
        }
      ],
      "stateMutability": "view",
      "type": "function",
      "constant": true
    },
    {
      "inputs": [
        {
          "internalType": "uint256",
          "name": "",
          "type": "uint256"
        }
      ],
      "name": "runningAdsInAdspot",
      "outputs": [
        {
          "internalType": "uint256",
          "name": "",
          "type": "uint256"
        }
      ],
      "stateMutability": "view",
      "type": "function",
      "constant": true
    },
    {
      "inputs": [
        {
          "internalType": "address",
          "name": "from",
          "type": "address"
        },
        {
          "internalType": "address",
          "name": "to",
          "type": "address"
        },
        {
          "internalType": "uint256",
          "name": "tokenId",
          "type": "uint256"
        }
      ],
      "name": "safeTransferFrom",
      "outputs": [],
      "stateMutability": "nonpayable",
      "type": "function"
    },
    {
      "inputs": [
        {
          "internalType": "address",
          "name": "from",
          "type": "address"
        },
        {
          "internalType": "address",
          "name": "to",
          "type": "address"
        },
        {
          "internalType": "uint256",
          "name": "tokenId",
          "type": "uint256"
        },
        {
          "internalType": "bytes",
          "name": "_data",
          "type": "bytes"
        }
      ],
      "name": "safeTransferFrom",
      "outputs": [],
      "stateMutability": "nonpayable",
      "type": "function"
    },
    {
      "inputs": [
        {
          "internalType": "address",
          "name": "operator",
          "type": "address"
        },
        {
          "internalType": "bool",
          "name": "approved",
          "type": "bool"
        }
      ],
      "name": "setApprovalForAll",
      "outputs": [],
      "stateMutability": "nonpayable",
      "type": "function"
    },
    {
      "inputs": [
        {
          "internalType": "bytes4",
          "name": "interfaceId",
          "type": "bytes4"
        }
      ],
      "name": "supportsInterface",
      "outputs": [
        {
          "internalType": "bool",
          "name": "",
          "type": "bool"
        }
      ],
      "stateMutability": "view",
      "type": "function",
      "constant": true
    },
    {
      "inputs": [],
      "name": "symbol",
      "outputs": [
        {
          "internalType": "string",
          "name": "",
          "type": "string"
        }
      ],
      "stateMutability": "view",
      "type": "function",
      "constant": true
    },
    {
      "inputs": [
        {
          "internalType": "uint256",
          "name": "tokenId",
          "type": "uint256"
        }
      ],
      "name": "tokenURI",
      "outputs": [
        {
          "internalType": "string",
          "name": "",
          "type": "string"
        }
      ],
      "stateMutability": "view",
      "type": "function",
      "constant": true
    },
    {
      "inputs": [
        {
          "internalType": "address",
          "name": "from",
          "type": "address"
        },
        {
          "internalType": "address",
          "name": "to",
          "type": "address"
        },
        {
          "internalType": "uint256",
          "name": "tokenId",
          "type": "uint256"
        }
      ],
      "name": "transferFrom",
      "outputs": [],
      "stateMutability": "nonpayable",
      "type": "function"
    },
    {
      "inputs": [
        {
          "internalType": "uint256",
          "name": "_price",
          "type": "uint256"
        },
        {
          "internalType": "uint8",
          "name": "_maxAds",
          "type": "uint8"
        }
      ],
      "name": "create",
      "outputs": [
        {
          "internalType": "uint256",
          "name": "",
          "type": "uint256"
        }
      ],
      "stateMutability": "nonpayable",
      "type": "function"
    },
    {
      "inputs": [
        {
          "internalType": "address",
          "name": "to",
          "type": "address"
        },
        {
          "internalType": "uint256",
          "name": "tokenId",
          "type": "uint256"
        }
      ],
      "name": "approve",
      "outputs": [],
      "stateMutability": "nonpayable",
      "type": "function"
    },
    {
      "inputs": [
        {
          "internalType": "uint256",
          "name": "adspotId",
          "type": "uint256"
        },
        {
          "internalType": "uint256",
          "name": "requestId",
          "type": "uint256"
        }
      ],
      "name": "approve",
      "outputs": [],
      "stateMutability": "nonpayable",
      "type": "function"
    },
    {
      "inputs": [
        {
          "internalType": "uint256",
          "name": "adspotId",
          "type": "uint256"
        },
        {
          "internalType": "uint256",
          "name": "requestId",
          "type": "uint256"
        }
      ],
      "name": "refuse",
      "outputs": [],
      "stateMutability": "nonpayable",
      "type": "function"
    },
    {
      "inputs": [
        {
          "internalType": "uint256",
          "name": "adspotId",
          "type": "uint256"
        },
        {
          "internalType": "uint256",
          "name": "_newPrice",
          "type": "uint256"
        }
      ],
      "name": "setAdSpotPrice",
      "outputs": [],
      "stateMutability": "nonpayable",
      "type": "function"
    },
    {
      "inputs": [
        {
          "internalType": "uint256",
          "name": "adspotId",
          "type": "uint256"
        }
      ],
      "name": "withdrawBalance",
      "outputs": [],
      "stateMutability": "nonpayable",
      "type": "function"
    },
    {
      "inputs": [
        {
          "internalType": "uint256",
          "name": "adspotId",
          "type": "uint256"
        },
        {
          "internalType": "uint256",
          "name": "requestId",
          "type": "uint256"
        }
      ],
      "name": "terminate",
      "outputs": [],
      "stateMutability": "nonpayable",
      "type": "function"
    },
    {
      "inputs": [
        {
          "internalType": "uint256",
          "name": "adspotId",
          "type": "uint256"
        }
      ],
      "name": "calculateWithdrawBalance",
      "outputs": [
        {
          "internalType": "uint256",
          "name": "",
          "type": "uint256"
        }
      ],
      "stateMutability": "view",
      "type": "function",
      "constant": true
    },
    {
      "inputs": [
        {
          "internalType": "uint256",
          "name": "adspotId",
          "type": "uint256"
        },
        {
          "internalType": "string",
          "name": "adURI",
          "type": "string"
        }
      ],
      "name": "request",
      "outputs": [],
      "stateMutability": "payable",
      "type": "function",
      "payable": true
    },
    {
      "inputs": [
        {
          "internalType": "uint256",
          "name": "adspotId",
          "type": "uint256"
        },
        {
          "internalType": "uint256",
          "name": "requestId",
          "type": "uint256"
        }
      ],
      "name": "cancelRequest",
      "outputs": [],
      "stateMutability": "nonpayable",
      "type": "function"
    },
    {
      "inputs": [
        {
          "internalType": "uint256",
          "name": "adspotId",
          "type": "uint256"
        },
        {
          "internalType": "uint256",
          "name": "requestId",
          "type": "uint256"
        }
      ],
      "name": "terminateRequest",
      "outputs": [],
      "stateMutability": "nonpayable",
      "type": "function"
    },
    {
      "inputs": [
        {
          "internalType": "uint256",
          "name": "adspotId",
          "type": "uint256"
        }
      ],
      "name": "getRequests",
      "outputs": [
        {
          "components": [
            {
              "internalType": "address",
              "name": "requester",
              "type": "address"
            },
            {
              "internalType": "uint256",
              "name": "adspotId",
              "type": "uint256"
            },
            {
              "internalType": "string",
              "name": "adURI",
              "type": "string"
            },
            {
              "internalType": "uint256",
              "name": "balance",
              "type": "uint256"
            },
            {
              "internalType": "enum Adspot.Status",
              "name": "requestStatus",
              "type": "uint8"
            },
            {
              "internalType": "uint64",
              "name": "approvedOnTimestamp",
              "type": "uint64"
            },
            {
              "internalType": "uint64",
              "name": "lastWithdrawnTimestamp",
              "type": "uint64"
            }
          ],
          "internalType": "struct Adspot.Request[]",
          "name": "",
          "type": "tuple[]"
        }
      ],
      "stateMutability": "view",
      "type": "function",
      "constant": true
    },
    {
      "inputs": [
        {
          "internalType": "uint256",
          "name": "adspotId",
          "type": "uint256"
        },
        {
          "internalType": "uint256",
          "name": "requestId",
          "type": "uint256"
        }
      ],
      "name": "getBalance",
      "outputs": [
        {
          "internalType": "uint256",
          "name": "",
          "type": "uint256"
        }
      ],
      "stateMutability": "view",
      "type": "function",
      "constant": true
    },
    {
      "inputs": [
        {
          "internalType": "uint256",
          "name": "adspotId",
          "type": "uint256"
        }
      ],
      "name": "getPrice",
      "outputs": [
        {
          "internalType": "uint256",
          "name": "",
          "type": "uint256"
        }
      ],
      "stateMutability": "view",
      "type": "function",
      "constant": true
    },
    {
      "inputs": [
        {
          "internalType": "address",
          "name": "_owner",
          "type": "address"
        }
      ],
      "name": "getAdSpotsByOwner",
      "outputs": [
        {
          "internalType": "uint256[]",
          "name": "",
          "type": "uint256[]"
        }
      ],
      "stateMutability": "view",
      "type": "function",
      "constant": true
    }
  ],
  "bytecode": "0x60806040523480156200001157600080fd5b506040518060400160405280600681526020017f416473706f7400000000000000000000000000000000000000000000000000008152506040518060400160405280600381526020017f4144530000000000000000000000000000000000000000000000000000000000815250816000908051906020019062000096929190620000b8565b508060019080519060200190620000af929190620000b8565b505050620001cd565b828054620000c69062000168565b90600052602060002090601f016020900481019282620000ea576000855562000136565b82601f106200010557805160ff191683800117855562000136565b8280016001018555821562000136579182015b828111156200013557825182559160200191906001019062000118565b5b50905062000145919062000149565b5090565b5b80821115620001645760008160009055506001016200014a565b5090565b600060028204905060018216806200018157607f821691505b602082108114156200019857620001976200019e565b5b50919050565b7f4e487b7100000000000000000000000000000000000000000000000000000000600052602260045260246000fd5b61580c80620001dd6000396000f3fe6080604052600436106101f95760003560e01c80638163ba111161010d578063ca13f668116100a0578063e75722301161006f578063e7572230146107b4578063e7bb134a146107f1578063e8ccb84c1461081c578063e985e9c514610859578063faf172f714610896576101f9565b8063ca13f668146106e8578063d586d2e414610725578063d5e788291461074e578063da76d5cd1461078b576101f9565b8063b88d4fde116100dc578063b88d4fde14610608578063bae1d65c14610631578063bd4d86241461066e578063c87b56dd146106ab576101f9565b80638163ba111461056f57806395d89b411461058b5780639cefeafb146105b6578063a22cb465146105df576101f9565b806332026a51116101905780636206963a1161015f5780636206963a146104665780636352211e146104a35780636b883cc0146104e057806370a08231146105095780637db8112d14610546576101f9565b806332026a511461039a5780633b0c7094146103d757806342842e0e146104145780635d35a3d91461043d576101f9565b8063095ea7b3116101cc578063095ea7b3146102cc57806311e054e2146102f557806313b8bad41461033257806323b872dd14610371576101f9565b806301ffc9a7146101fe57806306fdde031461023b578063081812fc1461026657806308d57b0d146102a3575b600080fd5b34801561020a57600080fd5b50610225600480360381019061022091906142b9565b6108d3565b6040516102329190614f09565b60405180910390f35b34801561024757600080fd5b506102506109b5565b60405161025d9190614f24565b60405180910390f35b34801561027257600080fd5b5061028d6004803603810190610288919061430b565b610a47565b60405161029a9190614e27565b60405180910390f35b3480156102af57600080fd5b506102ca60048036038101906102c59190614388565b610acc565b005b3480156102d857600080fd5b506102f360048036038101906102ee919061427d565b610b91565b005b34801561030157600080fd5b5061031c60048036038101906103179190614112565b610ca9565b60405161032991906151c6565b60405180910390f35b34801561033e57600080fd5b506103596004803603810190610354919061430b565b610cc1565b60405161036893929190614e8e565b60405180910390f35b34801561037d57600080fd5b5061039860048036038101906103939190614177565b610d18565b005b3480156103a657600080fd5b506103c160048036038101906103bc9190614388565b610d78565b6040516103ce91906151c6565b60405180910390f35b3480156103e357600080fd5b506103fe60048036038101906103f99190614112565b610de7565b60405161040b9190614ee7565b60405180910390f35b34801561042057600080fd5b5061043b60048036038101906104369190614177565b610f83565b005b34801561044957600080fd5b50610464600480360381019061045f9190614388565b610fa3565b005b34801561047257600080fd5b5061048d60048036038101906104889190614112565b61132f565b60405161049a91906151c6565b60405180910390f35b3480156104af57600080fd5b506104ca60048036038101906104c5919061430b565b611347565b6040516104d79190614e27565b60405180910390f35b3480156104ec57600080fd5b5061050760048036038101906105029190614388565b6113f9565b005b34801561051557600080fd5b50610530600480360381019061052b9190614112565b61193c565b60405161053d91906151c6565b60405180910390f35b34801561055257600080fd5b5061056d60048036038101906105689190614388565b6119f4565b005b61058960048036038101906105849190614334565b611bf9565b005b34801561059757600080fd5b506105a0611e63565b6040516105ad9190614f24565b60405180910390f35b3480156105c257600080fd5b506105dd60048036038101906105d89190614388565b611ef5565b005b3480156105eb57600080fd5b5061060660048036038101906106019190614241565b61227d565b005b34801561061457600080fd5b5061062f600480360381019061062a91906141c6565b6123fe565b005b34801561063d57600080fd5b506106586004803603810190610653919061430b565b612460565b6040516106659190614e27565b60405180910390f35b34801561067a57600080fd5b506106956004803603810190610690919061430b565b612493565b6040516106a291906151c6565b60405180910390f35b3480156106b757600080fd5b506106d260048036038101906106cd919061430b565b612699565b6040516106df9190614f24565b60405180910390f35b3480156106f457600080fd5b5061070f600480360381019061070a919061430b565b6127eb565b60405161071c91906151c6565b60405180910390f35b34801561073157600080fd5b5061074c60048036038101906107479190614388565b612803565b005b34801561075a57600080fd5b506107756004803603810190610770919061430b565b612afa565b6040516107829190614ec5565b60405180910390f35b34801561079757600080fd5b506107b260048036038101906107ad919061430b565b612d56565b005b3480156107c057600080fd5b506107db60048036038101906107d6919061430b565b613171565b6040516107e891906151c6565b60405180910390f35b3480156107fd57600080fd5b50610806613191565b60405161081391906151c6565b60405180910390f35b34801561082857600080fd5b50610843600480360381019061083e919061430b565b613197565b60405161085091906151c6565b60405180910390f35b34801561086557600080fd5b50610880600480360381019061087b919061413b565b6131af565b60405161088d9190614f09565b60405180910390f35b3480156108a257600080fd5b506108bd60048036038101906108b891906143c4565b613243565b6040516108ca91906151c6565b60405180910390f35b60007f80ac58cd000000000000000000000000000000000000000000000000000000007bffffffffffffffffffffffffffffffffffffffffffffffffffffffff1916827bffffffffffffffffffffffffffffffffffffffffffffffffffffffff1916148061099e57507f5b5e139f000000000000000000000000000000000000000000000000000000007bffffffffffffffffffffffffffffffffffffffffffffffffffffffff1916827bffffffffffffffffffffffffffffffffffffffffffffffffffffffff1916145b806109ae57506109ad826133e8565b5b9050919050565b6060600080546109c4906155a7565b80601f01602080910402602001604051908101604052809291908181526020018280546109f0906155a7565b8015610a3d5780601f10610a1257610100808354040283529160200191610a3d565b820191906000526020600020905b815481529060010190602001808311610a2057829003601f168201915b5050505050905090565b6000610a5282613452565b610a91576040517f08c379a0000000000000000000000000000000000000000000000000000000008152600401610a8890615126565b60405180910390fd5b6004600083815260200190815260200160002060009054906101000a900473ffffffffffffffffffffffffffffffffffffffff169050919050565b81600e600082815260200190815260200160002060000160009054906101000a900473ffffffffffffffffffffffffffffffffffffffff1673ffffffffffffffffffffffffffffffffffffffff163373ffffffffffffffffffffffffffffffffffffffff1614610b71576040517f08c379a0000000000000000000000000000000000000000000000000000000008152600401610b6890614f86565b60405180910390fd5b81600e600085815260200190815260200160002060010181905550505050565b6000610b9c82611347565b90508073ffffffffffffffffffffffffffffffffffffffff168373ffffffffffffffffffffffffffffffffffffffff161415610c0d576040517f08c379a0000000000000000000000000000000000000000000000000000000008152600401610c0490615186565b60405180910390fd5b8073ffffffffffffffffffffffffffffffffffffffff16610c2c6134be565b73ffffffffffffffffffffffffffffffffffffffff161480610c5b5750610c5a81610c556134be565b6131af565b5b610c9a576040517f08c379a0000000000000000000000000000000000000000000000000000000008152600401610c9190615066565b60405180910390fd5b610ca483836134c6565b505050565b600b6020528060005260406000206000915090505481565b600e6020528060005260406000206000915090508060000160009054906101000a900473ffffffffffffffffffffffffffffffffffffffff16908060010154908060020160009054906101000a900460ff16905083565b610d29610d236134be565b8261357f565b610d68576040517f08c379a0000000000000000000000000000000000000000000000000000000008152600401610d5f906151a6565b60405180910390fd5b610d7383838361365d565b505050565b600080600e60008581526020019081526020016000206003018381548110610dc9577f4e487b7100000000000000000000000000000000000000000000000000000000600052603260045260246000fd5b90600052602060002090600502019050806003015491505092915050565b60606000600a60008473ffffffffffffffffffffffffffffffffffffffff1673ffffffffffffffffffffffffffffffffffffffff1681526020019081526020016000205467ffffffffffffffff811115610e6a577f4e487b7100000000000000000000000000000000000000000000000000000000600052604160045260246000fd5b604051908082528060200260200182016040528015610e985781602001602082028036833780820191505090505b5090506000805b600854811015610f78578473ffffffffffffffffffffffffffffffffffffffff166009600083815260200190815260200160002060009054906101000a900473ffffffffffffffffffffffffffffffffffffffff1673ffffffffffffffffffffffffffffffffffffffff161415610f655780838381518110610f4a577f4e487b7100000000000000000000000000000000000000000000000000000000600052603260045260246000fd5b6020026020010181815250508180610f61906155d9565b9250505b8080610f70906155d9565b915050610e9f565b508192505050919050565b610f9e838383604051806020016040528060008152506123fe565b505050565b81600e600082815260200190815260200160002060000160009054906101000a900473ffffffffffffffffffffffffffffffffffffffff1673ffffffffffffffffffffffffffffffffffffffff163373ffffffffffffffffffffffffffffffffffffffff1614611048576040517f08c379a000000000000000000000000000000000000000000000000000000000815260040161103f90614f86565b60405180910390fd5b600e600084815260200190815260200160002060020160009054906101000a900460ff1660ff16600d600085815260200190815260200160002054106110c3576040517f08c379a00000000000000000000000000000000000000000000000000000000081526004016110ba90614f66565b60405180910390fd5b6000600e60008581526020019081526020016000206003018381548110611113577f4e487b7100000000000000000000000000000000000000000000000000000000600052603260045260246000fd5b906000526020600020906005020190506000600581111561115d577f4e487b7100000000000000000000000000000000000000000000000000000000600052602160045260246000fd5b6005811115611195577f4e487b7100000000000000000000000000000000000000000000000000000000600052602160045260246000fd5b8160040160009054906101000a900460ff1660058111156111df577f4e487b7100000000000000000000000000000000000000000000000000000000600052602160045260246000fd5b1461121f576040517f08c379a0000000000000000000000000000000000000000000000000000000008152600401611216906150c6565b60405180910390fd5b60016005811115611259577f4e487b7100000000000000000000000000000000000000000000000000000000600052602160045260246000fd5b8160040160006101000a81548160ff021916908360058111156112a5577f4e487b7100000000000000000000000000000000000000000000000000000000600052602160045260246000fd5b0217905550428160040160016101000a81548167ffffffffffffffff021916908367ffffffffffffffff160217905550428160040160096101000a81548167ffffffffffffffff021916908367ffffffffffffffff160217905550600d60008581526020019081526020016000206000815480929190611324906155d9565b919050555050505050565b600a6020528060005260406000206000915090505481565b6000806002600084815260200190815260200160002060009054906101000a900473ffffffffffffffffffffffffffffffffffffffff169050600073ffffffffffffffffffffffffffffffffffffffff168173ffffffffffffffffffffffffffffffffffffffff1614156113f0576040517f08c379a00000000000000000000000000000000000000000000000000000000081526004016113e7906150a6565b60405180910390fd5b80915050919050565b6000600e60008481526020019081526020016000206003018281548110611449577f4e487b7100000000000000000000000000000000000000000000000000000000600052603260045260246000fd5b906000526020600020906005020190503373ffffffffffffffffffffffffffffffffffffffff168160000160009054906101000a900473ffffffffffffffffffffffffffffffffffffffff1673ffffffffffffffffffffffffffffffffffffffff16146114eb576040517f08c379a00000000000000000000000000000000000000000000000000000000081526004016114e290615046565b60405180910390fd5b60016005811115611525577f4e487b7100000000000000000000000000000000000000000000000000000000600052602160045260246000fd5b600581111561155d577f4e487b7100000000000000000000000000000000000000000000000000000000600052602160045260246000fd5b8160040160009054906101000a900460ff1660058111156115a7577f4e487b7100000000000000000000000000000000000000000000000000000000600052602160045260246000fd5b146115e7576040517f08c379a00000000000000000000000000000000000000000000000000000000081526004016115de90614f46565b60405180910390fd5b60046005811115611621577f4e487b7100000000000000000000000000000000000000000000000000000000600052602160045260246000fd5b8160040160006101000a81548160ff0219169083600581111561166d577f4e487b7100000000000000000000000000000000000000000000000000000000600052602160045260246000fd5b0217905550600062015180600e600086815260200190815260200160002060010154611699919061538e565b905060008260040160099054906101000a900467ffffffffffffffff16426116c1919061544d565b67ffffffffffffffff169050600082826116db91906153bf565b9050808460030154101561176f57600e600087815260200190815260200160002060000160009054906101000a900473ffffffffffffffffffffffffffffffffffffffff1673ffffffffffffffffffffffffffffffffffffffff166108fc85600301549081150290604051600060405180830381858888f19350505050158015611769573d6000803e3d6000fd5b50611843565b600e600087815260200190815260200160002060000160009054906101000a900473ffffffffffffffffffffffffffffffffffffffff1673ffffffffffffffffffffffffffffffffffffffff166108fc829081150290604051600060405180830381858888f193505050501580156117eb573d6000803e3d6000fd5b503373ffffffffffffffffffffffffffffffffffffffff166108fc8286600301546118169190615419565b9081150290604051600060405180830381858888f19350505050158015611841573d6000803e3d6000fd5b505b6000846003018190555060046005811115611887577f4e487b7100000000000000000000000000000000000000000000000000000000600052602160045260246000fd5b60058111156118bf577f4e487b7100000000000000000000000000000000000000000000000000000000600052602160045260246000fd5b8460040160009054906101000a900460ff166005811115611909577f4e487b7100000000000000000000000000000000000000000000000000000000600052602160045260246000fd5b5050600d6000878152602001908152602001600020600081548092919061192f9061557d565b9190505550505050505050565b60008073ffffffffffffffffffffffffffffffffffffffff168273ffffffffffffffffffffffffffffffffffffffff1614156119ad576040517f08c379a00000000000000000000000000000000000000000000000000000000081526004016119a490615086565b60405180910390fd5b600360008373ffffffffffffffffffffffffffffffffffffffff1673ffffffffffffffffffffffffffffffffffffffff168152602001908152602001600020549050919050565b81600e600082815260200190815260200160002060000160009054906101000a900473ffffffffffffffffffffffffffffffffffffffff1673ffffffffffffffffffffffffffffffffffffffff163373ffffffffffffffffffffffffffffffffffffffff1614611a99576040517f08c379a0000000000000000000000000000000000000000000000000000000008152600401611a9090614f86565b60405180910390fd5b6000600e60008581526020019081526020016000206003018381548110611ae9577f4e487b7100000000000000000000000000000000000000000000000000000000600052603260045260246000fd5b9060005260206000209060050201905060026005811115611b33577f4e487b7100000000000000000000000000000000000000000000000000000000600052602160045260246000fd5b8160040160006101000a81548160ff02191690836005811115611b7f577f4e487b7100000000000000000000000000000000000000000000000000000000600052602160045260246000fd5b02179055508060000160009054906101000a900473ffffffffffffffffffffffffffffffffffffffff1673ffffffffffffffffffffffffffffffffffffffff166108fc82600301549081150290604051600060405180830381858888f19350505050158015611bf2573d6000803e3d6000fd5b5050505050565b600e60008381526020019081526020016000206003016040518060e001604052803373ffffffffffffffffffffffffffffffffffffffff16815260200184815260200183815260200134815260200160006005811115611c82577f4e487b7100000000000000000000000000000000000000000000000000000000600052602160045260246000fd5b6005811115611cba577f4e487b7100000000000000000000000000000000000000000000000000000000600052602160045260246000fd5b8152602001600067ffffffffffffffff168152602001600067ffffffffffffffff16815250908060018154018082558091505060019003906000526020600020906005020160009091909190915060008201518160000160006101000a81548173ffffffffffffffffffffffffffffffffffffffff021916908373ffffffffffffffffffffffffffffffffffffffff160217905550602082015181600101556040820151816002019080519060200190611d75929190613f21565b506060820151816003015560808201518160040160006101000a81548160ff02191690836005811115611dd1577f4e487b7100000000000000000000000000000000000000000000000000000000600052602160045260246000fd5b021790555060a08201518160040160016101000a81548167ffffffffffffffff021916908367ffffffffffffffff16021790555060c08201518160040160096101000a81548167ffffffffffffffff021916908367ffffffffffffffff1602179055505050600c60008381526020019081526020016000206000815480929190611e5a906155d9565b91905055505050565b606060018054611e72906155a7565b80601f0160208091040260200160405190810160405280929190818152602001828054611e9e906155a7565b8015611eeb5780601f10611ec057610100808354040283529160200191611eeb565b820191906000526020600020905b815481529060010190602001808311611ece57829003601f168201915b5050505050905090565b81600e600082815260200190815260200160002060000160009054906101000a900473ffffffffffffffffffffffffffffffffffffffff1673ffffffffffffffffffffffffffffffffffffffff163373ffffffffffffffffffffffffffffffffffffffff1614611f9a576040517f08c379a0000000000000000000000000000000000000000000000000000000008152600401611f9190614f86565b60405180910390fd5b6000600e60008581526020019081526020016000206003018381548110611fea577f4e487b7100000000000000000000000000000000000000000000000000000000600052603260045260246000fd5b90600052602060002090600502019050600062015180600e600087815260200190815260200160002060010154612021919061538e565b905060008260040160099054906101000a900467ffffffffffffffff1642612049919061544d565b67ffffffffffffffff1690506000828261206391906153bf565b905080846003015410156120c1573373ffffffffffffffffffffffffffffffffffffffff166108fc85600301549081150290604051600060405180830381858888f193505050501580156120bb573d6000803e3d6000fd5b50612183565b3373ffffffffffffffffffffffffffffffffffffffff166108fc829081150290604051600060405180830381858888f19350505050158015612107573d6000803e3d6000fd5b508360000160009054906101000a900473ffffffffffffffffffffffffffffffffffffffff1673ffffffffffffffffffffffffffffffffffffffff166108fc8286600301546121569190615419565b9081150290604051600060405180830381858888f19350505050158015612181573d6000803e3d6000fd5b505b60008460030181905550600460058111156121c7577f4e487b7100000000000000000000000000000000000000000000000000000000600052602160045260246000fd5b60058111156121ff577f4e487b7100000000000000000000000000000000000000000000000000000000600052602160045260246000fd5b8460040160009054906101000a900460ff166005811115612249577f4e487b7100000000000000000000000000000000000000000000000000000000600052602160045260246000fd5b5050600d6000888152602001908152602001600020600081548092919061226f9061557d565b919050555050505050505050565b6122856134be565b73ffffffffffffffffffffffffffffffffffffffff168273ffffffffffffffffffffffffffffffffffffffff1614156122f3576040517f08c379a00000000000000000000000000000000000000000000000000000000081526004016122ea90615006565b60405180910390fd5b80600560006123006134be565b73ffffffffffffffffffffffffffffffffffffffff1673ffffffffffffffffffffffffffffffffffffffff16815260200190815260200160002060008473ffffffffffffffffffffffffffffffffffffffff1673ffffffffffffffffffffffffffffffffffffffff16815260200190815260200160002060006101000a81548160ff0219169083151502179055508173ffffffffffffffffffffffffffffffffffffffff166123ad6134be565b73ffffffffffffffffffffffffffffffffffffffff167f17307eab39ab6107e8899845ad3d59bd9653f200f220920489ca2b5937696c31836040516123f29190614f09565b60405180910390a35050565b61240f6124096134be565b8361357f565b61244e576040517f08c379a0000000000000000000000000000000000000000000000000000000008152600401612445906151a6565b60405180910390fd5b61245a848484846138b9565b50505050565b60096020528060005260406000206000915054906101000a900473ffffffffffffffffffffffffffffffffffffffff1681565b60008060009050600062015180600e6000868152602001908152602001600020600101546124c1919061538e565b905060005b600c60008681526020019081526020016000205481101561268e576000600e60008781526020019081526020016000206003018281548110612531577f4e487b7100000000000000000000000000000000000000000000000000000000600052603260045260246000fd5b906000526020600020906005020190506001600581111561257b577f4e487b7100000000000000000000000000000000000000000000000000000000600052602160045260246000fd5b60058111156125b3577f4e487b7100000000000000000000000000000000000000000000000000000000600052602160045260246000fd5b8160040160009054906101000a900460ff1660058111156125fd577f4e487b7100000000000000000000000000000000000000000000000000000000600052602160045260246000fd5b141561267a5760008160040160099054906101000a900467ffffffffffffffff1642612629919061544d565b67ffffffffffffffff1690506000848261264391906153bf565b9050808360030154111561266457808661265d9190615338565b9550612677565b8260030154866126749190615338565b95505b50505b508080612686906155d9565b9150506124c6565b508192505050919050565b60606126a482613452565b6126e3576040517f08c379a00000000000000000000000000000000000000000000000000000000081526004016126da90615106565b60405180910390fd5b6000600660008481526020019081526020016000208054612703906155a7565b80601f016020809104026020016040519081016040528092919081815260200182805461272f906155a7565b801561277c5780601f106127515761010080835404028352916020019161277c565b820191906000526020600020905b81548152906001019060200180831161275f57829003601f168201915b50505050509050600061278d613915565b90506000815114156127a35781925050506127e6565b6000825111156127d85780826040516020016127c0929190614e03565b604051602081830303815290604052925050506127e6565b6127e18461392c565b925050505b919050565b600d6020528060005260406000206000915090505481565b6000600e60008481526020019081526020016000206003018281548110612853577f4e487b7100000000000000000000000000000000000000000000000000000000600052603260045260246000fd5b906000526020600020906005020190503373ffffffffffffffffffffffffffffffffffffffff168160000160009054906101000a900473ffffffffffffffffffffffffffffffffffffffff1673ffffffffffffffffffffffffffffffffffffffff16146128f5576040517f08c379a00000000000000000000000000000000000000000000000000000000081526004016128ec90615046565b60405180910390fd5b6000600581111561292f577f4e487b7100000000000000000000000000000000000000000000000000000000600052602160045260246000fd5b6005811115612967577f4e487b7100000000000000000000000000000000000000000000000000000000600052602160045260246000fd5b8160040160009054906101000a900460ff1660058111156129b1577f4e487b7100000000000000000000000000000000000000000000000000000000600052602160045260246000fd5b146129f1576040517f08c379a00000000000000000000000000000000000000000000000000000000081526004016129e8906150c6565b60405180910390fd5b60036005811115612a2b577f4e487b7100000000000000000000000000000000000000000000000000000000600052602160045260246000fd5b8160040160006101000a81548160ff02191690836005811115612a77577f4e487b7100000000000000000000000000000000000000000000000000000000600052602160045260246000fd5b0217905550600081600301819055508060000160009054906101000a900473ffffffffffffffffffffffffffffffffffffffff1673ffffffffffffffffffffffffffffffffffffffff166108fc82600301549081150290604051600060405180830381858888f19350505050158015612af4573d6000803e3d6000fd5b50505050565b6060600e6000838152602001908152602001600020600301805480602002602001604051908101604052809291908181526020016000905b82821015612d4b57838290600052602060002090600502016040518060e00160405290816000820160009054906101000a900473ffffffffffffffffffffffffffffffffffffffff1673ffffffffffffffffffffffffffffffffffffffff1673ffffffffffffffffffffffffffffffffffffffff16815260200160018201548152602001600282018054612bc5906155a7565b80601f0160208091040260200160405190810160405280929190818152602001828054612bf1906155a7565b8015612c3e5780601f10612c1357610100808354040283529160200191612c3e565b820191906000526020600020905b815481529060010190602001808311612c2157829003601f168201915b50505050508152602001600382015481526020016004820160009054906101000a900460ff166005811115612c9c577f4e487b7100000000000000000000000000000000000000000000000000000000600052602160045260246000fd5b6005811115612cd4577f4e487b7100000000000000000000000000000000000000000000000000000000600052602160045260246000fd5b81526020016004820160019054906101000a900467ffffffffffffffff1667ffffffffffffffff1667ffffffffffffffff1681526020016004820160099054906101000a900467ffffffffffffffff1667ffffffffffffffff1667ffffffffffffffff168152505081526020019060010190612b32565b505050509050919050565b80600e600082815260200190815260200160002060000160009054906101000a900473ffffffffffffffffffffffffffffffffffffffff1673ffffffffffffffffffffffffffffffffffffffff163373ffffffffffffffffffffffffffffffffffffffff1614612dfb576040517f08c379a0000000000000000000000000000000000000000000000000000000008152600401612df290614f86565b60405180910390fd5b60008062015180600e600086815260200190815260200160002060010154612e23919061538e565b905060005b600c60008681526020019081526020016000205481101561316a576000600e60008781526020019081526020016000206003018281548110612e93577f4e487b7100000000000000000000000000000000000000000000000000000000600052603260045260246000fd5b9060005260206000209060050201905060016005811115612edd577f4e487b7100000000000000000000000000000000000000000000000000000000600052602160045260246000fd5b6005811115612f15577f4e487b7100000000000000000000000000000000000000000000000000000000600052602160045260246000fd5b8160040160009054906101000a900460ff166005811115612f5f577f4e487b7100000000000000000000000000000000000000000000000000000000600052602160045260246000fd5b141561310f5760008160040160099054906101000a900467ffffffffffffffff1642612f8b919061544d565b67ffffffffffffffff16905060008482612fa591906153bf565b90508083600301541115612fde57808360030154612fc39190615419565b83600301819055508086612fd79190615338565b95506130e1565b60008360030181905550826003015486612ff89190615338565b9550600580811115613033577f4e487b7100000000000000000000000000000000000000000000000000000000600052602160045260246000fd5b600581111561306b577f4e487b7100000000000000000000000000000000000000000000000000000000600052602160045260246000fd5b8360040160009054906101000a900460ff1660058111156130b5577f4e487b7100000000000000000000000000000000000000000000000000000000600052602160045260246000fd5b5050600d600089815260200190815260200160002060008154809291906130db9061557d565b91905055505b428360040160096101000a81548167ffffffffffffffff021916908367ffffffffffffffff16021790555050505b3373ffffffffffffffffffffffffffffffffffffffff166108fc859081150290604051600060405180830381858888f19350505050158015613155573d6000803e3d6000fd5b50508080613162906155d9565b915050612e28565b5050505050565b6000600e6000838152602001908152602001600020600101549050919050565b60085481565b600c6020528060005260406000206000915090505481565b6000600560008473ffffffffffffffffffffffffffffffffffffffff1673ffffffffffffffffffffffffffffffffffffffff16815260200190815260200160002060008373ffffffffffffffffffffffffffffffffffffffff1673ffffffffffffffffffffffffffffffffffffffff16815260200190815260200160002060009054906101000a900460ff16905092915050565b600061324f60076139d3565b600061325b60076139e9565b905033600e600083815260200190815260200160002060000160006101000a81548173ffffffffffffffffffffffffffffffffffffffff021916908373ffffffffffffffffffffffffffffffffffffffff16021790555083600e60008381526020019081526020016000206001018190555082600e600083815260200190815260200160002060020160006101000a81548160ff021916908360ff160217905550336009600083815260200190815260200160002060006101000a81548173ffffffffffffffffffffffffffffffffffffffff021916908373ffffffffffffffffffffffffffffffffffffffff160217905550600a60003373ffffffffffffffffffffffffffffffffffffffff1673ffffffffffffffffffffffffffffffffffffffff168152602001908152602001600020600081548092919061339e906155d9565b91905055506000600d600083815260200190815260200160002081905550600860008154809291906133cf906155d9565b91905055506133de33826139f7565b8091505092915050565b60007f01ffc9a7000000000000000000000000000000000000000000000000000000007bffffffffffffffffffffffffffffffffffffffffffffffffffffffff1916827bffffffffffffffffffffffffffffffffffffffffffffffffffffffff1916149050919050565b60008073ffffffffffffffffffffffffffffffffffffffff166002600084815260200190815260200160002060009054906101000a900473ffffffffffffffffffffffffffffffffffffffff1673ffffffffffffffffffffffffffffffffffffffff1614159050919050565b600033905090565b816004600083815260200190815260200160002060006101000a81548173ffffffffffffffffffffffffffffffffffffffff021916908373ffffffffffffffffffffffffffffffffffffffff160217905550808273ffffffffffffffffffffffffffffffffffffffff1661353983611347565b73ffffffffffffffffffffffffffffffffffffffff167f8c5be1e5ebec7d5bd14f71427d1e84f3dd0314c0f7b2291e5b200ac8c7c3b92560405160405180910390a45050565b600061358a82613452565b6135c9576040517f08c379a00000000000000000000000000000000000000000000000000000000081526004016135c090615026565b60405180910390fd5b60006135d483611347565b90508073ffffffffffffffffffffffffffffffffffffffff168473ffffffffffffffffffffffffffffffffffffffff16148061364357508373ffffffffffffffffffffffffffffffffffffffff1661362b84610a47565b73ffffffffffffffffffffffffffffffffffffffff16145b80613654575061365381856131af565b5b91505092915050565b8273ffffffffffffffffffffffffffffffffffffffff1661367d82611347565b73ffffffffffffffffffffffffffffffffffffffff16146136d3576040517f08c379a00000000000000000000000000000000000000000000000000000000081526004016136ca90615146565b60405180910390fd5b600073ffffffffffffffffffffffffffffffffffffffff168273ffffffffffffffffffffffffffffffffffffffff161415613743576040517f08c379a000000000000000000000000000000000000000000000000000000000815260040161373a90614fe6565b60405180910390fd5b61374e838383613bc5565b6137596000826134c6565b6001600360008573ffffffffffffffffffffffffffffffffffffffff1673ffffffffffffffffffffffffffffffffffffffff16815260200190815260200160002060008282546137a99190615419565b925050819055506001600360008473ffffffffffffffffffffffffffffffffffffffff1673ffffffffffffffffffffffffffffffffffffffff16815260200190815260200160002060008282546138009190615338565b92505081905550816002600083815260200190815260200160002060006101000a81548173ffffffffffffffffffffffffffffffffffffffff021916908373ffffffffffffffffffffffffffffffffffffffff160217905550808273ffffffffffffffffffffffffffffffffffffffff168473ffffffffffffffffffffffffffffffffffffffff167fddf252ad1be2c89b69c2b068fc378daa952ba7f163c4a11628f55a4df523b3ef60405160405180910390a4505050565b6138c484848461365d565b6138d084848484613bca565b61390f576040517f08c379a000000000000000000000000000000000000000000000000000000000815260040161390690614fa6565b60405180910390fd5b50505050565b606060405180602001604052806000815250905090565b606061393782613452565b613976576040517f08c379a000000000000000000000000000000000000000000000000000000000815260040161396d90615166565b60405180910390fd5b6000613980613915565b905060008151116139a057604051806020016040528060008152506139cb565b806139aa84613d61565b6040516020016139bb929190614e03565b6040516020818303038152906040525b915050919050565b6001816000016000828254019250508190555050565b600081600001549050919050565b600073ffffffffffffffffffffffffffffffffffffffff168273ffffffffffffffffffffffffffffffffffffffff161415613a67576040517f08c379a0000000000000000000000000000000000000000000000000000000008152600401613a5e906150e6565b60405180910390fd5b613a7081613452565b15613ab0576040517f08c379a0000000000000000000000000000000000000000000000000000000008152600401613aa790614fc6565b60405180910390fd5b613abc60008383613bc5565b6001600360008473ffffffffffffffffffffffffffffffffffffffff1673ffffffffffffffffffffffffffffffffffffffff1681526020019081526020016000206000828254613b0c9190615338565b92505081905550816002600083815260200190815260200160002060006101000a81548173ffffffffffffffffffffffffffffffffffffffff021916908373ffffffffffffffffffffffffffffffffffffffff160217905550808273ffffffffffffffffffffffffffffffffffffffff16600073ffffffffffffffffffffffffffffffffffffffff167fddf252ad1be2c89b69c2b068fc378daa952ba7f163c4a11628f55a4df523b3ef60405160405180910390a45050565b505050565b6000613beb8473ffffffffffffffffffffffffffffffffffffffff16613f0e565b15613d54578373ffffffffffffffffffffffffffffffffffffffff1663150b7a02613c146134be565b8786866040518563ffffffff1660e01b8152600401613c369493929190614e42565b602060405180830381600087803b158015613c5057600080fd5b505af1925050508015613c8157506040513d601f19601f82011682018060405250810190613c7e91906142e2565b60015b613d04573d8060008114613cb1576040519150601f19603f3d011682016040523d82523d6000602084013e613cb6565b606091505b50600081511415613cfc576040517f08c379a0000000000000000000000000000000000000000000000000000000008152600401613cf390614fa6565b60405180910390fd5b805181602001fd5b63150b7a0260e01b7bffffffffffffffffffffffffffffffffffffffffffffffffffffffff1916817bffffffffffffffffffffffffffffffffffffffffffffffffffffffff191614915050613d59565b600190505b949350505050565b60606000821415613da9576040518060400160405280600181526020017f30000000000000000000000000000000000000000000000000000000000000008152509050613f09565b600082905060005b60008214613ddb578080613dc4906155d9565b915050600a82613dd4919061538e565b9150613db1565b60008167ffffffffffffffff811115613e1d577f4e487b7100000000000000000000000000000000000000000000000000000000600052604160045260246000fd5b6040519080825280601f01601f191660200182016040528015613e4f5781602001600182028036833780820191505090505b5090505b60008514613f0257600182613e689190615419565b9150600a85613e779190615622565b6030613e839190615338565b60f81b818381518110613ebf577f4e487b7100000000000000000000000000000000000000000000000000000000600052603260045260246000fd5b60200101907effffffffffffffffffffffffffffffffffffffffffffffffffffffffffffff1916908160001a905350600a85613efb919061538e565b9450613e53565b8093505050505b919050565b600080823b905060008111915050919050565b828054613f2d906155a7565b90600052602060002090601f016020900481019282613f4f5760008555613f96565b82601f10613f6857805160ff1916838001178555613f96565b82800160010185558215613f96579182015b82811115613f95578251825591602001919060010190613f7a565b5b509050613fa39190613fa7565b5090565b5b80821115613fc0576000816000905550600101613fa8565b5090565b6000613fd7613fd284615212565b6151e1565b905082815260208101848484011115613fef57600080fd5b613ffa84828561553b565b509392505050565b600061401561401084615242565b6151e1565b90508281526020810184848401111561402d57600080fd5b61403884828561553b565b509392505050565b60008135905061404f81615763565b92915050565b6000813590506140648161577a565b92915050565b60008135905061407981615791565b92915050565b60008151905061408e81615791565b92915050565b600082601f8301126140a557600080fd5b81356140b5848260208601613fc4565b91505092915050565b600082601f8301126140cf57600080fd5b81356140df848260208601614002565b91505092915050565b6000813590506140f7816157a8565b92915050565b60008135905061410c816157bf565b92915050565b60006020828403121561412457600080fd5b600061413284828501614040565b91505092915050565b6000806040838503121561414e57600080fd5b600061415c85828601614040565b925050602061416d85828601614040565b9150509250929050565b60008060006060848603121561418c57600080fd5b600061419a86828701614040565b93505060206141ab86828701614040565b92505060406141bc868287016140e8565b9150509250925092565b600080600080608085870312156141dc57600080fd5b60006141ea87828801614040565b94505060206141fb87828801614040565b935050604061420c878288016140e8565b925050606085013567ffffffffffffffff81111561422957600080fd5b61423587828801614094565b91505092959194509250565b6000806040838503121561425457600080fd5b600061426285828601614040565b925050602061427385828601614055565b9150509250929050565b6000806040838503121561429057600080fd5b600061429e85828601614040565b92505060206142af858286016140e8565b9150509250929050565b6000602082840312156142cb57600080fd5b60006142d98482850161406a565b91505092915050565b6000602082840312156142f457600080fd5b60006143028482850161407f565b91505092915050565b60006020828403121561431d57600080fd5b600061432b848285016140e8565b91505092915050565b6000806040838503121561434757600080fd5b6000614355858286016140e8565b925050602083013567ffffffffffffffff81111561437257600080fd5b61437e858286016140be565b9150509250929050565b6000806040838503121561439b57600080fd5b60006143a9858286016140e8565b92505060206143ba858286016140e8565b9150509250929050565b600080604083850312156143d757600080fd5b60006143e5858286016140e8565b92505060206143f6858286016140fd565b9150509250929050565b600061440c8383614d2b565b905092915050565b60006144208383614dc7565b60208301905092915050565b61443581615481565b82525050565b61444481615481565b82525050565b600061445582615292565b61445f81856152d8565b93508360208202850161447185615272565b8060005b858110156144ad578484038952815161448e8582614400565b9450614499836152be565b925060208a01995050600181019050614475565b50829750879550505050505092915050565b60006144ca8261529d565b6144d481856152e9565b93506144df83615282565b8060005b838110156145105781516144f78882614414565b9750614502836152cb565b9250506001810190506144e3565b5085935050505092915050565b61452681615493565b82525050565b6000614537826152a8565b61454181856152fa565b935061455181856020860161554a565b61455a8161573e565b840191505092915050565b61456e81615529565b82525050565b600061457f826152b3565b614589818561530b565b935061459981856020860161554a565b6145a28161573e565b840191505092915050565b60006145b8826152b3565b6145c2818561531c565b93506145d281856020860161554a565b6145db8161573e565b840191505092915050565b60006145f1826152b3565b6145fb818561532d565b935061460b81856020860161554a565b80840191505092915050565b600061462460168361531c565b91507f52657175657374206973206e6f742072756e6e696e67000000000000000000006000830152602082019050919050565b600061466460228361531c565b91507f5468697320616473706f742069732066756c6c206f662072756e6e696e67206160008301527f64730000000000000000000000000000000000000000000000000000000000006020830152604082019050919050565b60006146ca60158361531c565b91507f53656e646572206e6f7420617574686f72697a656400000000000000000000006000830152602082019050919050565b600061470a60328361531c565b91507f4552433732313a207472616e7366657220746f206e6f6e20455243373231526560008301527f63656976657220696d706c656d656e74657200000000000000000000000000006020830152604082019050919050565b6000614770601c8361531c565b91507f4552433732313a20746f6b656e20616c7265616479206d696e746564000000006000830152602082019050919050565b60006147b060248361531c565b91507f4552433732313a207472616e7366657220746f20746865207a65726f2061646460008301527f72657373000000000000000000000000000000000000000000000000000000006020830152604082019050919050565b600061481660198361531c565b91507f4552433732313a20617070726f766520746f2063616c6c6572000000000000006000830152602082019050919050565b6000614856602c8361531c565b91507f4552433732313a206f70657261746f7220717565727920666f72206e6f6e657860008301527f697374656e7420746f6b656e00000000000000000000000000000000000000006020830152604082019050919050565b60006148bc60208361531c565b91507f4d75737420626520746865206f776e6572206f662074686520726571756573746000830152602082019050919050565b60006148fc60388361531c565b91507f4552433732313a20617070726f76652063616c6c6572206973206e6f74206f7760008301527f6e6572206e6f7220617070726f76656420666f7220616c6c00000000000000006020830152604082019050919050565b6000614962602a8361531c565b91507f4552433732313a2062616c616e636520717565727920666f7220746865207a6560008301527f726f2061646472657373000000000000000000000000000000000000000000006020830152604082019050919050565b60006149c860298361531c565b91507f4552433732313a206f776e657220717565727920666f72206e6f6e657869737460008301527f656e7420746f6b656e00000000000000000000000000000000000000000000006020830152604082019050919050565b6000614a2e60228361531c565b91507f526571756573742068617320616c7265616479206265656e2070726f6365737360008301527f65640000000000000000000000000000000000000000000000000000000000006020830152604082019050919050565b6000614a9460208361531c565b91507f4552433732313a206d696e7420746f20746865207a65726f20616464726573736000830152602082019050919050565b6000614ad460318361531c565b91507f45524337323155524953746f726167653a2055524920717565727920666f722060008301527f6e6f6e6578697374656e7420746f6b656e0000000000000000000000000000006020830152604082019050919050565b6000614b3a602c8361531c565b91507f4552433732313a20617070726f76656420717565727920666f72206e6f6e657860008301527f697374656e7420746f6b656e00000000000000000000000000000000000000006020830152604082019050919050565b6000614ba060298361531c565b91507f4552433732313a207472616e73666572206f6620746f6b656e2074686174206960008301527f73206e6f74206f776e00000000000000000000000000000000000000000000006020830152604082019050919050565b6000614c06602f8361531c565b91507f4552433732314d657461646174613a2055524920717565727920666f72206e6f60008301527f6e6578697374656e7420746f6b656e00000000000000000000000000000000006020830152604082019050919050565b6000614c6c60218361531c565b91507f4552433732313a20617070726f76616c20746f2063757272656e74206f776e6560008301527f72000000000000000000000000000000000000000000000000000000000000006020830152604082019050919050565b6000614cd260318361531c565b91507f4552433732313a207472616e736665722063616c6c6572206973206e6f74206f60008301527f776e6572206e6f7220617070726f7665640000000000000000000000000000006020830152604082019050919050565b600060e083016000830151614d43600086018261442c565b506020830151614d566020860182614dc7565b5060408301518482036040860152614d6e8282614574565b9150506060830151614d836060860182614dc7565b506080830151614d966080860182614565565b5060a0830151614da960a0860182614de5565b5060c0830151614dbc60c0860182614de5565b508091505092915050565b614dd0816154fe565b82525050565b614ddf816154fe565b82525050565b614dee81615508565b82525050565b614dfd8161551c565b82525050565b6000614e0f82856145e6565b9150614e1b82846145e6565b91508190509392505050565b6000602082019050614e3c600083018461443b565b92915050565b6000608082019050614e57600083018761443b565b614e64602083018661443b565b614e716040830185614dd6565b8181036060830152614e83818461452c565b905095945050505050565b6000606082019050614ea3600083018661443b565b614eb06020830185614dd6565b614ebd6040830184614df4565b949350505050565b60006020820190508181036000830152614edf818461444a565b905092915050565b60006020820190508181036000830152614f0181846144bf565b905092915050565b6000602082019050614f1e600083018461451d565b92915050565b60006020820190508181036000830152614f3e81846145ad565b905092915050565b60006020820190508181036000830152614f5f81614617565b9050919050565b60006020820190508181036000830152614f7f81614657565b9050919050565b60006020820190508181036000830152614f9f816146bd565b9050919050565b60006020820190508181036000830152614fbf816146fd565b9050919050565b60006020820190508181036000830152614fdf81614763565b9050919050565b60006020820190508181036000830152614fff816147a3565b9050919050565b6000602082019050818103600083015261501f81614809565b9050919050565b6000602082019050818103600083015261503f81614849565b9050919050565b6000602082019050818103600083015261505f816148af565b9050919050565b6000602082019050818103600083015261507f816148ef565b9050919050565b6000602082019050818103600083015261509f81614955565b9050919050565b600060208201905081810360008301526150bf816149bb565b9050919050565b600060208201905081810360008301526150df81614a21565b9050919050565b600060208201905081810360008301526150ff81614a87565b9050919050565b6000602082019050818103600083015261511f81614ac7565b9050919050565b6000602082019050818103600083015261513f81614b2d565b9050919050565b6000602082019050818103600083015261515f81614b93565b9050919050565b6000602082019050818103600083015261517f81614bf9565b9050919050565b6000602082019050818103600083015261519f81614c5f565b9050919050565b600060208201905081810360008301526151bf81614cc5565b9050919050565b60006020820190506151db6000830184614dd6565b92915050565b6000604051905081810181811067ffffffffffffffff821117156152085761520761570f565b5b8060405250919050565b600067ffffffffffffffff82111561522d5761522c61570f565b5b601f19601f8301169050602081019050919050565b600067ffffffffffffffff82111561525d5761525c61570f565b5b601f19601f8301169050602081019050919050565b6000819050602082019050919050565b6000819050602082019050919050565b600081519050919050565b600081519050919050565b600081519050919050565b600081519050919050565b6000602082019050919050565b6000602082019050919050565b600082825260208201905092915050565b600082825260208201905092915050565b600082825260208201905092915050565b600082825260208201905092915050565b600082825260208201905092915050565b600081905092915050565b6000615343826154fe565b915061534e836154fe565b9250827fffffffffffffffffffffffffffffffffffffffffffffffffffffffffffffffff0382111561538357615382615653565b5b828201905092915050565b6000615399826154fe565b91506153a4836154fe565b9250826153b4576153b3615682565b5b828204905092915050565b60006153ca826154fe565b91506153d5836154fe565b9250817fffffffffffffffffffffffffffffffffffffffffffffffffffffffffffffffff048311821515161561540e5761540d615653565b5b828202905092915050565b6000615424826154fe565b915061542f836154fe565b92508282101561544257615441615653565b5b828203905092915050565b600061545882615508565b915061546383615508565b92508282101561547657615475615653565b5b828203905092915050565b600061548c826154de565b9050919050565b60008115159050919050565b60007fffffffff0000000000000000000000000000000000000000000000000000000082169050919050565b60008190506154d98261574f565b919050565b600073ffffffffffffffffffffffffffffffffffffffff82169050919050565b6000819050919050565b600067ffffffffffffffff82169050919050565b600060ff82169050919050565b6000615534826154cb565b9050919050565b82818337600083830152505050565b60005b8381101561556857808201518184015260208101905061554d565b83811115615577576000848401525b50505050565b6000615588826154fe565b9150600082141561559c5761559b615653565b5b600182039050919050565b600060028204905060018216806155bf57607f821691505b602082108114156155d3576155d26156e0565b5b50919050565b60006155e4826154fe565b91507fffffffffffffffffffffffffffffffffffffffffffffffffffffffffffffffff82141561561757615616615653565b5b600182019050919050565b600061562d826154fe565b9150615638836154fe565b92508261564857615647615682565b5b828206905092915050565b7f4e487b7100000000000000000000000000000000000000000000000000000000600052601160045260246000fd5b7f4e487b7100000000000000000000000000000000000000000000000000000000600052601260045260246000fd5b7f4e487b7100000000000000000000000000000000000000000000000000000000600052602160045260246000fd5b7f4e487b7100000000000000000000000000000000000000000000000000000000600052602260045260246000fd5b7f4e487b7100000000000000000000000000000000000000000000000000000000600052604160045260246000fd5b6000601f19601f8301169050919050565b600681106157605761575f6156b1565b5b50565b61576c81615481565b811461577757600080fd5b50565b61578381615493565b811461578e57600080fd5b50565b61579a8161549f565b81146157a557600080fd5b50565b6157b1816154fe565b81146157bc57600080fd5b50565b6157c88161551c565b81146157d357600080fd5b5056fea2646970667358221220eca3b8bf0cda13e97bddf51412cd0c5b9f821703ee6cb5a3d8ee9ea951f0208264736f6c63430008000033",
  "immutableReferences": {},
  "source": "pragma solidity ^0.8.0;\n\nimport \"@openzeppelin/contracts/token/ERC721/extensions/ERC721URIStorage.sol\";\nimport \"@openzeppelin/contracts/utils/Counters.sol\";\n\ncontract Adspot is ERC721URIStorage {\n\n  /// Todo - add an AdMarket Fee\n\n  using Counters for Counters.Counter;\n    Counters.Counter private _adspotIds;\n\n  uint public adspotCount;\n\n  enum Status {\n    Pending,\n    Accepted,\n    Rejected,\n    Cancelled,\n    Terminated,\n    Completed\n  }\n\n  struct AdSpot {\n    address owner;\n    uint256 pricePerDay;\n    uint8 maxAds;\n    Request[] requests;\n  }\n\n  struct Request {\n    address requester;\n    uint256 adspotId;\n    string adURI;\n    uint256 balance;\n    Status requestStatus;\n    uint64 approvedOnTimestamp;\n    uint64 lastWithdrawnTimestamp;\n  }\n\n  mapping(uint => address) public adSpotToOwner;\n  mapping(address => uint) public ownerAdSpotCount;\n  mapping(address => uint) public adSpotOwnerBalance;\n\n  mapping(uint => uint) public requestsInAdspot;\n  mapping(uint => uint) public runningAdsInAdspot;\n\n  mapping(uint => AdSpot) public idToAdSpot;\n\n  constructor() ERC721(\"Adspot\", \"ADS\") public {}\n\n  modifier onlyOwnerOf(uint _adspotId) {\n    require(msg.sender == idToAdSpot[_adspotId].owner, \"Sender not authorized\");\n    _;\n  }\n\n  /// Adspot Owner ///\n\n  /// @dev Anyone can Mint a new Adspot\n  function create(uint256 _price, uint8 _maxAds) public returns (uint256) {\n    _adspotIds.increment();\n    uint _id = _adspotIds.current();\n\n    idToAdSpot[_id].owner = msg.sender;\n    idToAdSpot[_id].pricePerDay = _price;\n    idToAdSpot[_id].maxAds = _maxAds;\n\n    adSpotToOwner[_id] = msg.sender;\n    ownerAdSpotCount[msg.sender]++;\n    runningAdsInAdspot[_id] = 0;\n    adspotCount++;\n\n    _mint(msg.sender, _id);\n    return _id;\n  }\n\n  /// @dev Adspot Owner must Approve requests for the Ad to start\n  function approve(uint256 adspotId, uint requestId) public onlyOwnerOf(adspotId) {\n    require(runningAdsInAdspot[adspotId] < idToAdSpot[adspotId].maxAds, 'This adspot is full of running ads');\n    Request storage _request = idToAdSpot[adspotId].requests[requestId];\n    require(_request.requestStatus == Status(0), 'Request has already been processed');\n    _request.requestStatus = Status(1);\n    _request.approvedOnTimestamp = uint64(block.timestamp);\n    _request.lastWithdrawnTimestamp = uint64(block.timestamp);\n    runningAdsInAdspot[adspotId]++;\n  }\n\n  /// @dev Refuse the request and pay back Request's owner\n  function refuse(uint256 adspotId, uint requestId) public onlyOwnerOf(adspotId) {\n    Request storage _request = idToAdSpot[adspotId].requests[requestId];\n    _request.requestStatus = Status(2);\n    payable(_request.requester).transfer(_request.balance);\n  }\n\n  /// @dev Set the URI of the Adspot\n  function setAdSpotURI(uint256 adspotId, string memory _tokenURI) internal {\n    _setTokenURI(adspotId, _tokenURI);\n  }\n\n  /// @dev Set Adspot Price\n  function setAdSpotPrice(uint adspotId, uint _newPrice) public onlyOwnerOf(adspotId) {\n    idToAdSpot[adspotId].pricePerDay = _newPrice;\n  }\n\n  /// @dev Owner can Withdraw the spent balance of ads in an Adspot\n  function withdrawBalance(uint adspotId) public onlyOwnerOf(adspotId) {\n    uint _toWithdraw = 0;\n    uint _pricePerSecond = idToAdSpot[adspotId].pricePerDay / 86400;\n\n    for (uint i = 0; i < requestsInAdspot[adspotId]; i++) {\n      Request storage _request = idToAdSpot[adspotId].requests[i];\n      if (_request.requestStatus == Status(1)) {\n\n        uint timeDiff = uint64(block.timestamp) - uint64(_request.lastWithdrawnTimestamp);\n        uint balanceDiff = timeDiff * _pricePerSecond;\n\n        if (_request.balance > balanceDiff) {\n          _request.balance = _request.balance - balanceDiff;\n          _toWithdraw = _toWithdraw + balanceDiff;\n        } else {\n          _request.balance = 0;\n          _toWithdraw = _toWithdraw + _request.balance;\n          _request.requestStatus == Status(5);\n          runningAdsInAdspot[adspotId]--;\n        }\n\n        _request.lastWithdrawnTimestamp = uint64(block.timestamp);\n      }\n      payable(msg.sender).transfer(_toWithdraw);\n    }\n  }\n\n  /// @dev Withdraw consummed balance and payback the remaining balance to request's owner\n  function terminate(uint256 adspotId, uint requestId) public onlyOwnerOf(adspotId) {\n    Request storage _request = idToAdSpot[adspotId].requests[requestId];\n    uint _pricePerSecond = idToAdSpot[adspotId].pricePerDay / 86400;\n    uint timeDiff = uint64(block.timestamp) - uint64(_request.lastWithdrawnTimestamp);\n    uint balanceDiff = timeDiff * _pricePerSecond;\n\n    if (_request.balance < balanceDiff) {\n      payable(msg.sender).transfer(_request.balance);\n    } else {\n      payable(msg.sender).transfer(balanceDiff);\n      payable(_request.requester).transfer(_request.balance - balanceDiff);\n    }\n\n    _request.balance = 0;\n    _request.requestStatus == Status(4);\n    runningAdsInAdspot[adspotId]--;\n  }\n\n  /// @dev Calculate the current due balance for any specific Adspot\n  function calculateWithdrawBalance(uint adspotId) external view returns (uint256) {\n    uint256 _availableToWithdraw = 0;\n    uint _pricePerSecond = idToAdSpot[adspotId].pricePerDay / 86400;\n\n    for (uint i = 0; i < requestsInAdspot[adspotId]; i++) {\n      Request storage _request = idToAdSpot[adspotId].requests[i];\n      if (_request.requestStatus == Status(1)) {\n        uint timeDiff = uint64(block.timestamp) - uint64(_request.lastWithdrawnTimestamp);\n        uint balanceDiff = timeDiff * _pricePerSecond;\n\n        if (_request.balance > balanceDiff) {\n          _availableToWithdraw = _availableToWithdraw + balanceDiff;\n        } else {\n          _availableToWithdraw = _availableToWithdraw + _request.balance;\n        }\n      }\n    }\n    return _availableToWithdraw;\n  }\n\n\n  /// Requester Only ///\n\n  /// @dev Request a new ad in an Adspot by proposing an adURI (containing formatted ad information) and setting a balance\n  function request(uint256 adspotId, string memory adURI) public payable {\n    idToAdSpot[adspotId].requests.push(Request(msg.sender, adspotId, adURI, msg.value, Status(0), 0, 0));\n    requestsInAdspot[adspotId]++;\n  }\n\n  /// @dev Allow requester to cancel its pending request and get refunded\n  function cancelRequest(uint256 adspotId, uint requestId) public {\n    Request storage _request = idToAdSpot[adspotId].requests[requestId];\n    require(_request.requester == msg.sender, 'Must be the owner of the request');\n    require(_request.requestStatus == Status(0), 'Request has already been processed');\n    _request.requestStatus = Status(3);\n    _request.balance = 0;\n    payable(_request.requester).transfer(_request.balance);\n  }\n\n  /// @dev Allow requester to cancel its running request and get refunded the difference\n  function terminateRequest(uint256 adspotId, uint requestId) public {\n    Request storage _request = idToAdSpot[adspotId].requests[requestId];\n    require(_request.requester == msg.sender, 'Must be the owner of the request');\n    require(_request.requestStatus == Status(1), 'Request is not running');\n    _request.requestStatus = Status(4);\n\n    uint _pricePerSecond = idToAdSpot[adspotId].pricePerDay / 86400;\n    uint timeDiff = uint64(block.timestamp) - uint64(_request.lastWithdrawnTimestamp);\n    uint balanceDiff = timeDiff * _pricePerSecond;\n\n    if (_request.balance < balanceDiff) {\n      payable(idToAdSpot[adspotId].owner).transfer(_request.balance);\n    } else {\n      payable(idToAdSpot[adspotId].owner).transfer(balanceDiff);\n      payable(msg.sender).transfer(_request.balance - balanceDiff);\n    }\n\n    _request.balance = 0;\n    _request.requestStatus == Status(4);\n    runningAdsInAdspot[adspotId]--;\n  }\n\n  /// Utils ///\n\n  /// @dev Returns all requests in an Adspot\n  function getRequests(uint256 adspotId) external view returns (Request[] memory) {\n    return idToAdSpot[adspotId].requests;\n  }\n\n  /// @dev Returns specific request balance\n  function getBalance(uint256 adspotId, uint256 requestId) external view returns (uint256) {\n    Request storage _request = idToAdSpot[adspotId].requests[requestId];\n    return _request.balance;\n  }\n\n  /// @dev Returns Price of an Adspot\n  function getPrice(uint256 adspotId) external view returns (uint256) {\n    return idToAdSpot[adspotId].pricePerDay;\n  }\n\n  /// @dev Get Adspots per Owners\n  function getAdSpotsByOwner(address _owner) external view returns(uint[] memory) {\n    uint[] memory result = new uint[](ownerAdSpotCount[_owner]);\n    uint counter = 0;\n    for (uint i = 0; i < adspotCount; i++) {\n      if (adSpotToOwner[i] == _owner) {\n        result[counter] = i;\n        counter++;\n      }\n    }\n    return result;\n  }\n\n}\n",
  "sourcePath": "/Users/guillaumedesa/Documents/eth/adv-auction/contracts/Adspot.sol",
  "compiler": {
    "name": "solc",
    "version": "0.8.0+commit.c7dfd78e.Emscripten.clang"
  },
  "schemaVersion": "3.3.4",
  "updatedAt": "2021-07-08T12:20:40.867Z",
  "networkType": "ethereum",
  "devdoc": {
    "kind": "dev",
    "methods": {
      "approve(address,uint256)": {
        "details": "See {IERC721-approve}."
      },
      "approve(uint256,uint256)": {
        "details": "Adspot Owner must Approve requests for the Ad to start"
      },
      "balanceOf(address)": {
        "details": "See {IERC721-balanceOf}."
      },
      "calculateWithdrawBalance(uint256)": {
        "details": "Calculate the current due balance for any specific Adspot"
      },
      "cancelRequest(uint256,uint256)": {
        "details": "Allow requester to cancel its pending request and get refunded"
      },
      "create(uint256,uint8)": {
        "details": "Anyone can Mint a new Adspot"
      },
      "getAdSpotsByOwner(address)": {
        "details": "Get Adspots per Owners"
      },
      "getApproved(uint256)": {
        "details": "See {IERC721-getApproved}."
      },
      "getBalance(uint256,uint256)": {
        "details": "Returns specific request balance"
      },
      "getPrice(uint256)": {
        "details": "Returns Price of an Adspot"
      },
      "getRequests(uint256)": {
        "details": "Returns all requests in an Adspot"
      },
      "isApprovedForAll(address,address)": {
        "details": "See {IERC721-isApprovedForAll}."
      },
      "name()": {
        "details": "See {IERC721Metadata-name}."
      },
      "ownerOf(uint256)": {
        "details": "See {IERC721-ownerOf}."
      },
      "refuse(uint256,uint256)": {
        "details": "Refuse the request and pay back Request's owner"
      },
      "request(uint256,string)": {
        "details": "Request a new ad in an Adspot by proposing an adURI (containing formatted ad information) and setting a balance"
      },
      "safeTransferFrom(address,address,uint256)": {
        "details": "See {IERC721-safeTransferFrom}."
      },
      "safeTransferFrom(address,address,uint256,bytes)": {
        "details": "See {IERC721-safeTransferFrom}."
      },
      "setAdSpotPrice(uint256,uint256)": {
        "details": "Set Adspot Price"
      },
      "setApprovalForAll(address,bool)": {
        "details": "See {IERC721-setApprovalForAll}."
      },
      "supportsInterface(bytes4)": {
        "details": "See {IERC165-supportsInterface}."
      },
      "symbol()": {
        "details": "See {IERC721Metadata-symbol}."
      },
      "terminate(uint256,uint256)": {
        "details": "Withdraw consummed balance and payback the remaining balance to request's owner"
      },
      "terminateRequest(uint256,uint256)": {
        "details": "Allow requester to cancel its running request and get refunded the difference"
      },
      "tokenURI(uint256)": {
        "details": "See {IERC721Metadata-tokenURI}."
      },
      "transferFrom(address,address,uint256)": {
        "details": "See {IERC721-transferFrom}."
      },
      "withdrawBalance(uint256)": {
        "details": "Owner can Withdraw the spent balance of ads in an Adspot"
      }
    },
    "version": 1
  },
  "userdoc": {
    "kind": "user",
    "methods": {},
    "version": 1
  }
}