{
  "contractName": "Adspot",
  "abi": [
    {
      "inputs": [],
      "stateMutability": "nonpayable",
      "type": "constructor"
    },
    {
      "anonymous": false,
      "inputs": [
        {
          "indexed": true,
          "internalType": "address",
          "name": "owner",
          "type": "address"
        },
        {
          "indexed": true,
          "internalType": "address",
          "name": "approved",
          "type": "address"
        },
        {
          "indexed": true,
          "internalType": "uint256",
          "name": "tokenId",
          "type": "uint256"
        }
      ],
      "name": "Approval",
      "type": "event"
    },
    {
      "anonymous": false,
      "inputs": [
        {
          "indexed": true,
          "internalType": "address",
          "name": "owner",
          "type": "address"
        },
        {
          "indexed": true,
          "internalType": "address",
          "name": "operator",
          "type": "address"
        },
        {
          "indexed": false,
          "internalType": "bool",
          "name": "approved",
          "type": "bool"
        }
      ],
      "name": "ApprovalForAll",
      "type": "event"
    },
    {
      "anonymous": false,
      "inputs": [
        {
          "indexed": true,
          "internalType": "address",
          "name": "from",
          "type": "address"
        },
        {
          "indexed": true,
          "internalType": "address",
          "name": "to",
          "type": "address"
        },
        {
          "indexed": true,
          "internalType": "uint256",
          "name": "tokenId",
          "type": "uint256"
        }
      ],
      "name": "Transfer",
      "type": "event"
    },
    {
      "anonymous": false,
      "inputs": [
        {
          "indexed": false,
          "internalType": "uint256",
          "name": "adspotId",
          "type": "uint256"
        },
        {
          "indexed": true,
          "internalType": "address",
          "name": "owner",
          "type": "address"
        },
        {
          "indexed": false,
          "internalType": "uint256",
          "name": "pricePerDay",
          "type": "uint256"
        },
        {
          "indexed": false,
          "internalType": "uint256",
          "name": "maxAds",
          "type": "uint256"
        }
      ],
      "name": "newAdspot",
      "type": "event"
    },
    {
      "anonymous": false,
      "inputs": [
        {
          "indexed": false,
          "internalType": "uint256",
          "name": "adspotId",
          "type": "uint256"
        },
        {
          "indexed": false,
          "internalType": "uint256",
          "name": "requestId",
          "type": "uint256"
        },
        {
          "indexed": true,
          "internalType": "address",
          "name": "requester",
          "type": "address"
        },
        {
          "indexed": false,
          "internalType": "string",
          "name": "adURI",
          "type": "string"
        },
        {
          "indexed": false,
          "internalType": "uint256",
          "name": "balance",
          "type": "uint256"
        }
      ],
      "name": "newRequest",
      "type": "event"
    },
    {
      "anonymous": false,
      "inputs": [
        {
          "indexed": false,
          "internalType": "uint256",
          "name": "adspotId",
          "type": "uint256"
        },
        {
          "indexed": false,
          "internalType": "uint256",
          "name": "requestId",
          "type": "uint256"
        },
        {
          "indexed": false,
          "internalType": "enum Adspot.Status",
          "name": "status",
          "type": "uint8"
        }
      ],
      "name": "statusUpdate",
      "type": "event"
    },
    {
      "inputs": [
        {
          "internalType": "address",
          "name": "",
          "type": "address"
        }
      ],
      "name": "adSpotOwnerBalance",
      "outputs": [
        {
          "internalType": "uint256",
          "name": "",
          "type": "uint256"
        }
      ],
      "stateMutability": "view",
      "type": "function"
    },
    {
      "inputs": [
        {
          "internalType": "uint256",
          "name": "",
          "type": "uint256"
        }
      ],
      "name": "adSpotToOwner",
      "outputs": [
        {
          "internalType": "address",
          "name": "",
          "type": "address"
        }
      ],
      "stateMutability": "view",
      "type": "function"
    },
    {
      "inputs": [],
      "name": "adspotCount",
      "outputs": [
        {
          "internalType": "uint256",
          "name": "",
          "type": "uint256"
        }
      ],
      "stateMutability": "view",
      "type": "function"
    },
    {
      "inputs": [
        {
          "internalType": "address",
          "name": "owner",
          "type": "address"
        }
      ],
      "name": "balanceOf",
      "outputs": [
        {
          "internalType": "uint256",
          "name": "",
          "type": "uint256"
        }
      ],
      "stateMutability": "view",
      "type": "function"
    },
    {
      "inputs": [
        {
          "internalType": "uint256",
          "name": "tokenId",
          "type": "uint256"
        }
      ],
      "name": "getApproved",
      "outputs": [
        {
          "internalType": "address",
          "name": "",
          "type": "address"
        }
      ],
      "stateMutability": "view",
      "type": "function"
    },
    {
      "inputs": [
        {
          "internalType": "uint256",
          "name": "",
          "type": "uint256"
        }
      ],
      "name": "idToAdSpot",
      "outputs": [
        {
          "internalType": "address",
          "name": "owner",
          "type": "address"
        },
        {
          "internalType": "uint256",
          "name": "pricePerDay",
          "type": "uint256"
        },
        {
          "internalType": "uint8",
          "name": "maxAds",
          "type": "uint8"
        }
      ],
      "stateMutability": "view",
      "type": "function"
    },
    {
      "inputs": [
        {
          "internalType": "address",
          "name": "owner",
          "type": "address"
        },
        {
          "internalType": "address",
          "name": "operator",
          "type": "address"
        }
      ],
      "name": "isApprovedForAll",
      "outputs": [
        {
          "internalType": "bool",
          "name": "",
          "type": "bool"
        }
      ],
      "stateMutability": "view",
      "type": "function"
    },
    {
      "inputs": [],
      "name": "name",
      "outputs": [
        {
          "internalType": "string",
          "name": "",
          "type": "string"
        }
      ],
      "stateMutability": "view",
      "type": "function"
    },
    {
      "inputs": [
        {
          "internalType": "address",
          "name": "",
          "type": "address"
        }
      ],
      "name": "ownerAdSpotCount",
      "outputs": [
        {
          "internalType": "uint256",
          "name": "",
          "type": "uint256"
        }
      ],
      "stateMutability": "view",
      "type": "function"
    },
    {
      "inputs": [
        {
          "internalType": "uint256",
          "name": "tokenId",
          "type": "uint256"
        }
      ],
      "name": "ownerOf",
      "outputs": [
        {
          "internalType": "address",
          "name": "",
          "type": "address"
        }
      ],
      "stateMutability": "view",
      "type": "function"
    },
    {
      "inputs": [
        {
          "internalType": "uint256",
          "name": "",
          "type": "uint256"
        }
      ],
      "name": "requestsInAdspot",
      "outputs": [
        {
          "internalType": "uint256",
          "name": "",
          "type": "uint256"
        }
      ],
      "stateMutability": "view",
      "type": "function"
    },
    {
      "inputs": [
        {
          "internalType": "uint256",
          "name": "",
          "type": "uint256"
        }
      ],
      "name": "runningAdsInAdspot",
      "outputs": [
        {
          "internalType": "uint256",
          "name": "",
          "type": "uint256"
        }
      ],
      "stateMutability": "view",
      "type": "function"
    },
    {
      "inputs": [
        {
          "internalType": "address",
          "name": "from",
          "type": "address"
        },
        {
          "internalType": "address",
          "name": "to",
          "type": "address"
        },
        {
          "internalType": "uint256",
          "name": "tokenId",
          "type": "uint256"
        }
      ],
      "name": "safeTransferFrom",
      "outputs": [],
      "stateMutability": "nonpayable",
      "type": "function"
    },
    {
      "inputs": [
        {
          "internalType": "address",
          "name": "from",
          "type": "address"
        },
        {
          "internalType": "address",
          "name": "to",
          "type": "address"
        },
        {
          "internalType": "uint256",
          "name": "tokenId",
          "type": "uint256"
        },
        {
          "internalType": "bytes",
          "name": "_data",
          "type": "bytes"
        }
      ],
      "name": "safeTransferFrom",
      "outputs": [],
      "stateMutability": "nonpayable",
      "type": "function"
    },
    {
      "inputs": [
        {
          "internalType": "address",
          "name": "operator",
          "type": "address"
        },
        {
          "internalType": "bool",
          "name": "approved",
          "type": "bool"
        }
      ],
      "name": "setApprovalForAll",
      "outputs": [],
      "stateMutability": "nonpayable",
      "type": "function"
    },
    {
      "inputs": [
        {
          "internalType": "bytes4",
          "name": "interfaceId",
          "type": "bytes4"
        }
      ],
      "name": "supportsInterface",
      "outputs": [
        {
          "internalType": "bool",
          "name": "",
          "type": "bool"
        }
      ],
      "stateMutability": "view",
      "type": "function"
    },
    {
      "inputs": [],
      "name": "symbol",
      "outputs": [
        {
          "internalType": "string",
          "name": "",
          "type": "string"
        }
      ],
      "stateMutability": "view",
      "type": "function"
    },
    {
      "inputs": [
        {
          "internalType": "uint256",
          "name": "tokenId",
          "type": "uint256"
        }
      ],
      "name": "tokenURI",
      "outputs": [
        {
          "internalType": "string",
          "name": "",
          "type": "string"
        }
      ],
      "stateMutability": "view",
      "type": "function"
    },
    {
      "inputs": [
        {
          "internalType": "address",
          "name": "from",
          "type": "address"
        },
        {
          "internalType": "address",
          "name": "to",
          "type": "address"
        },
        {
          "internalType": "uint256",
          "name": "tokenId",
          "type": "uint256"
        }
      ],
      "name": "transferFrom",
      "outputs": [],
      "stateMutability": "nonpayable",
      "type": "function"
    },
    {
      "inputs": [
        {
          "internalType": "uint256",
          "name": "_price",
          "type": "uint256"
        },
        {
          "internalType": "uint8",
          "name": "_maxAds",
          "type": "uint8"
        }
      ],
      "name": "create",
      "outputs": [
        {
          "internalType": "uint256",
          "name": "",
          "type": "uint256"
        }
      ],
      "stateMutability": "nonpayable",
      "type": "function"
    },
    {
      "inputs": [
        {
          "internalType": "address",
          "name": "to",
          "type": "address"
        },
        {
          "internalType": "uint256",
          "name": "tokenId",
          "type": "uint256"
        }
      ],
      "name": "approve",
      "outputs": [],
      "stateMutability": "nonpayable",
      "type": "function"
    },
    {
      "inputs": [
        {
          "internalType": "uint256",
          "name": "adspotId",
          "type": "uint256"
        },
        {
          "internalType": "uint256",
          "name": "requestId",
          "type": "uint256"
        }
      ],
      "name": "approve",
      "outputs": [],
      "stateMutability": "nonpayable",
      "type": "function"
    },
    {
      "inputs": [
        {
          "internalType": "uint256",
          "name": "adspotId",
          "type": "uint256"
        },
        {
          "internalType": "uint256",
          "name": "requestId",
          "type": "uint256"
        }
      ],
      "name": "refuse",
      "outputs": [],
      "stateMutability": "nonpayable",
      "type": "function"
    },
    {
      "inputs": [
        {
          "internalType": "uint256",
          "name": "adspotId",
          "type": "uint256"
        },
        {
          "internalType": "uint256",
          "name": "_newPrice",
          "type": "uint256"
        }
      ],
      "name": "setAdSpotPrice",
      "outputs": [],
      "stateMutability": "nonpayable",
      "type": "function"
    },
    {
      "inputs": [
        {
          "internalType": "uint256",
          "name": "adspotId",
          "type": "uint256"
        }
      ],
      "name": "withdrawBalance",
      "outputs": [],
      "stateMutability": "nonpayable",
      "type": "function"
    },
    {
      "inputs": [
        {
          "internalType": "uint256",
          "name": "adspotId",
          "type": "uint256"
        },
        {
          "internalType": "uint256",
          "name": "requestId",
          "type": "uint256"
        }
      ],
      "name": "terminate",
      "outputs": [],
      "stateMutability": "nonpayable",
      "type": "function"
    },
    {
      "inputs": [
        {
          "internalType": "uint256",
          "name": "adspotId",
          "type": "uint256"
        }
      ],
      "name": "calculateWithdrawBalance",
      "outputs": [
        {
          "internalType": "uint256",
          "name": "",
          "type": "uint256"
        }
      ],
      "stateMutability": "view",
      "type": "function"
    },
    {
      "inputs": [
        {
          "internalType": "uint256",
          "name": "adspotId",
          "type": "uint256"
        },
        {
          "internalType": "string",
          "name": "adURI",
          "type": "string"
        }
      ],
      "name": "request",
      "outputs": [],
      "stateMutability": "payable",
      "type": "function"
    },
    {
      "inputs": [
        {
          "internalType": "uint256",
          "name": "adspotId",
          "type": "uint256"
        },
        {
          "internalType": "uint256",
          "name": "requestId",
          "type": "uint256"
        }
      ],
      "name": "cancelRequest",
      "outputs": [],
      "stateMutability": "nonpayable",
      "type": "function"
    },
    {
      "inputs": [
        {
          "internalType": "uint256",
          "name": "adspotId",
          "type": "uint256"
        },
        {
          "internalType": "uint256",
          "name": "requestId",
          "type": "uint256"
        }
      ],
      "name": "terminateRequest",
      "outputs": [],
      "stateMutability": "nonpayable",
      "type": "function"
    },
    {
      "inputs": [
        {
          "internalType": "uint256",
          "name": "adspotId",
          "type": "uint256"
        }
      ],
      "name": "getRequests",
      "outputs": [
        {
          "components": [
            {
              "internalType": "address",
              "name": "requester",
              "type": "address"
            },
            {
              "internalType": "uint256",
              "name": "adspotId",
              "type": "uint256"
            },
            {
              "internalType": "string",
              "name": "adURI",
              "type": "string"
            },
            {
              "internalType": "uint256",
              "name": "balance",
              "type": "uint256"
            },
            {
              "internalType": "enum Adspot.Status",
              "name": "requestStatus",
              "type": "uint8"
            },
            {
              "internalType": "uint64",
              "name": "approvedOnTimestamp",
              "type": "uint64"
            },
            {
              "internalType": "uint64",
              "name": "lastWithdrawnTimestamp",
              "type": "uint64"
            }
          ],
          "internalType": "struct Adspot.Request[]",
          "name": "",
          "type": "tuple[]"
        }
      ],
      "stateMutability": "view",
      "type": "function"
    },
    {
      "inputs": [
        {
          "internalType": "uint256",
          "name": "adspotId",
          "type": "uint256"
        },
        {
          "internalType": "uint256",
          "name": "requestId",
          "type": "uint256"
        }
      ],
      "name": "getBalance",
      "outputs": [
        {
          "internalType": "uint256",
          "name": "",
          "type": "uint256"
        }
      ],
      "stateMutability": "view",
      "type": "function"
    },
    {
      "inputs": [
        {
          "internalType": "uint256",
          "name": "adspotId",
          "type": "uint256"
        }
      ],
      "name": "getPrice",
      "outputs": [
        {
          "internalType": "uint256",
          "name": "",
          "type": "uint256"
        }
      ],
      "stateMutability": "view",
      "type": "function"
    },
    {
      "inputs": [
        {
          "internalType": "address",
          "name": "_owner",
          "type": "address"
        }
      ],
      "name": "getAdSpotsByOwner",
      "outputs": [
        {
          "internalType": "uint256[]",
          "name": "",
          "type": "uint256[]"
        }
      ],
      "stateMutability": "view",
      "type": "function"
    }
  ],
  "bytecode": "0x60806040523480156200001157600080fd5b506040518060400160405280600681526020017f416473706f7400000000000000000000000000000000000000000000000000008152506040518060400160405280600381526020017f4144530000000000000000000000000000000000000000000000000000000000815250816000908051906020019062000096929190620000b8565b508060019080519060200190620000af929190620000b8565b505050620001cd565b828054620000c69062000168565b90600052602060002090601f016020900481019282620000ea576000855562000136565b82601f106200010557805160ff191683800117855562000136565b8280016001018555821562000136579182015b828111156200013557825182559160200191906001019062000118565b5b50905062000145919062000149565b5090565b5b80821115620001645760008160009055506001016200014a565b5090565b600060028204905060018216806200018157607f821691505b602082108114156200019857620001976200019e565b5b50919050565b7f4e487b7100000000000000000000000000000000000000000000000000000000600052602260045260246000fd5b615ba880620001dd6000396000f3fe6080604052600436106101f95760003560e01c80638163ba111161010d578063ca13f668116100a0578063e75722301161006f578063e7572230146107b4578063e7bb134a146107f1578063e8ccb84c1461081c578063e985e9c514610859578063faf172f714610896576101f9565b8063ca13f668146106e8578063d586d2e414610725578063d5e788291461074e578063da76d5cd1461078b576101f9565b8063b88d4fde116100dc578063b88d4fde14610608578063bae1d65c14610631578063bd4d86241461066e578063c87b56dd146106ab576101f9565b80638163ba111461056f57806395d89b411461058b5780639cefeafb146105b6578063a22cb465146105df576101f9565b806332026a51116101905780636206963a1161015f5780636206963a146104665780636352211e146104a35780636b883cc0146104e057806370a08231146105095780637db8112d14610546576101f9565b806332026a511461039a5780633b0c7094146103d757806342842e0e146104145780635d35a3d91461043d576101f9565b8063095ea7b3116101cc578063095ea7b3146102cc57806311e054e2146102f557806313b8bad41461033257806323b872dd14610371576101f9565b806301ffc9a7146101fe57806306fdde031461023b578063081812fc1461026657806308d57b0d146102a3575b600080fd5b34801561020a57600080fd5b506102256004803603810190610220919061456b565b6108d3565b60405161023291906151d9565b60405180910390f35b34801561024757600080fd5b506102506109b5565b60405161025d91906151f4565b60405180910390f35b34801561027257600080fd5b5061028d600480360381019061028891906145bd565b610a47565b60405161029a91906150f7565b60405180910390f35b3480156102af57600080fd5b506102ca60048036038101906102c5919061463a565b610acc565b005b3480156102d857600080fd5b506102f360048036038101906102ee919061452f565b610b91565b005b34801561030157600080fd5b5061031c600480360381019061031791906143c4565b610ca9565b6040516103299190615496565b60405180910390f35b34801561033e57600080fd5b50610359600480360381019061035491906145bd565b610cc1565b6040516103689392919061515e565b60405180910390f35b34801561037d57600080fd5b5061039860048036038101906103939190614429565b610d18565b005b3480156103a657600080fd5b506103c160048036038101906103bc919061463a565b610d78565b6040516103ce9190615496565b60405180910390f35b3480156103e357600080fd5b506103fe60048036038101906103f991906143c4565b610de7565b60405161040b91906151b7565b60405180910390f35b34801561042057600080fd5b5061043b60048036038101906104369190614429565b610f83565b005b34801561044957600080fd5b50610464600480360381019061045f919061463a565b610fa3565b005b34801561047257600080fd5b5061048d600480360381019061048891906143c4565b6113a3565b60405161049a9190615496565b60405180910390f35b3480156104af57600080fd5b506104ca60048036038101906104c591906145bd565b6113bb565b6040516104d791906150f7565b60405180910390f35b3480156104ec57600080fd5b506105076004803603810190610502919061463a565b61146d565b005b34801561051557600080fd5b50610530600480360381019061052b91906143c4565b611966565b60405161053d9190615496565b60405180910390f35b34801561055257600080fd5b5061056d6004803603810190610568919061463a565b611a1e565b005b610589600480360381019061058491906145e6565b611c97565b005b34801561059757600080fd5b506105a0611f68565b6040516105ad91906151f4565b60405180910390f35b3480156105c257600080fd5b506105dd60048036038101906105d8919061463a565b611ffa565b005b3480156105eb57600080fd5b50610606600480360381019061060191906144f3565b6123f6565b005b34801561061457600080fd5b5061062f600480360381019061062a9190614478565b612577565b005b34801561063d57600080fd5b50610658600480360381019061065391906145bd565b6125d9565b60405161066591906150f7565b60405180910390f35b34801561067a57600080fd5b50610695600480360381019061069091906145bd565b61260c565b6040516106a29190615496565b60405180910390f35b3480156106b757600080fd5b506106d260048036038101906106cd91906145bd565b612812565b6040516106df91906151f4565b60405180910390f35b3480156106f457600080fd5b5061070f600480360381019061070a91906145bd565b612964565b60405161071c9190615496565b60405180910390f35b34801561073157600080fd5b5061074c6004803603810190610747919061463a565b61297c565b005b34801561075a57600080fd5b50610775600480360381019061077091906145bd565b612ce7565b6040516107829190615195565b60405180910390f35b34801561079757600080fd5b506107b260048036038101906107ad91906145bd565b612f43565b005b3480156107c057600080fd5b506107db60048036038101906107d691906145bd565b6133d1565b6040516107e89190615496565b60405180910390f35b3480156107fd57600080fd5b506108066133f1565b6040516108139190615496565b60405180910390f35b34801561082857600080fd5b50610843600480360381019061083e91906145bd565b6133f7565b6040516108509190615496565b60405180910390f35b34801561086557600080fd5b50610880600480360381019061087b91906143ed565b61340f565b60405161088d91906151d9565b60405180910390f35b3480156108a257600080fd5b506108bd60048036038101906108b89190614676565b6134a3565b6040516108ca9190615496565b60405180910390f35b60007f80ac58cd000000000000000000000000000000000000000000000000000000007bffffffffffffffffffffffffffffffffffffffffffffffffffffffff1916827bffffffffffffffffffffffffffffffffffffffffffffffffffffffff1916148061099e57507f5b5e139f000000000000000000000000000000000000000000000000000000007bffffffffffffffffffffffffffffffffffffffffffffffffffffffff1916827bffffffffffffffffffffffffffffffffffffffffffffffffffffffff1916145b806109ae57506109ad8261369a565b5b9050919050565b6060600080546109c490615943565b80601f01602080910402602001604051908101604052809291908181526020018280546109f090615943565b8015610a3d5780601f10610a1257610100808354040283529160200191610a3d565b820191906000526020600020905b815481529060010190602001808311610a2057829003601f168201915b5050505050905090565b6000610a5282613704565b610a91576040517f08c379a0000000000000000000000000000000000000000000000000000000008152600401610a88906153f6565b60405180910390fd5b6004600083815260200190815260200160002060009054906101000a900473ffffffffffffffffffffffffffffffffffffffff169050919050565b81600e600082815260200190815260200160002060000160009054906101000a900473ffffffffffffffffffffffffffffffffffffffff1673ffffffffffffffffffffffffffffffffffffffff163373ffffffffffffffffffffffffffffffffffffffff1614610b71576040517f08c379a0000000000000000000000000000000000000000000000000000000008152600401610b6890615256565b60405180910390fd5b81600e600085815260200190815260200160002060010181905550505050565b6000610b9c826113bb565b90508073ffffffffffffffffffffffffffffffffffffffff168373ffffffffffffffffffffffffffffffffffffffff161415610c0d576040517f08c379a0000000000000000000000000000000000000000000000000000000008152600401610c0490615456565b60405180910390fd5b8073ffffffffffffffffffffffffffffffffffffffff16610c2c613770565b73ffffffffffffffffffffffffffffffffffffffff161480610c5b5750610c5a81610c55613770565b61340f565b5b610c9a576040517f08c379a0000000000000000000000000000000000000000000000000000000008152600401610c9190615336565b60405180910390fd5b610ca48383613778565b505050565b600b6020528060005260406000206000915090505481565b600e6020528060005260406000206000915090508060000160009054906101000a900473ffffffffffffffffffffffffffffffffffffffff16908060010154908060020160009054906101000a900460ff16905083565b610d29610d23613770565b82613831565b610d68576040517f08c379a0000000000000000000000000000000000000000000000000000000008152600401610d5f90615476565b60405180910390fd5b610d7383838361390f565b505050565b600080600e60008581526020019081526020016000206003018381548110610dc9577f4e487b7100000000000000000000000000000000000000000000000000000000600052603260045260246000fd5b90600052602060002090600502019050806003015491505092915050565b60606000600a60008473ffffffffffffffffffffffffffffffffffffffff1673ffffffffffffffffffffffffffffffffffffffff1681526020019081526020016000205467ffffffffffffffff811115610e6a577f4e487b7100000000000000000000000000000000000000000000000000000000600052604160045260246000fd5b604051908082528060200260200182016040528015610e985781602001602082028036833780820191505090505b5090506000805b600854811015610f78578473ffffffffffffffffffffffffffffffffffffffff166009600083815260200190815260200160002060009054906101000a900473ffffffffffffffffffffffffffffffffffffffff1673ffffffffffffffffffffffffffffffffffffffff161415610f655780838381518110610f4a577f4e487b7100000000000000000000000000000000000000000000000000000000600052603260045260246000fd5b6020026020010181815250508180610f6190615975565b9250505b8080610f7090615975565b915050610e9f565b508192505050919050565b610f9e83838360405180602001604052806000815250612577565b505050565b81600e600082815260200190815260200160002060000160009054906101000a900473ffffffffffffffffffffffffffffffffffffffff1673ffffffffffffffffffffffffffffffffffffffff163373ffffffffffffffffffffffffffffffffffffffff1614611048576040517f08c379a000000000000000000000000000000000000000000000000000000000815260040161103f90615256565b60405180910390fd5b600e600084815260200190815260200160002060020160009054906101000a900460ff1660ff16600d600085815260200190815260200160002054106110c3576040517f08c379a00000000000000000000000000000000000000000000000000000000081526004016110ba90615236565b60405180910390fd5b6000600e60008581526020019081526020016000206003018381548110611113577f4e487b7100000000000000000000000000000000000000000000000000000000600052603260045260246000fd5b906000526020600020906005020190506000600581111561115d577f4e487b7100000000000000000000000000000000000000000000000000000000600052602160045260246000fd5b6005811115611195577f4e487b7100000000000000000000000000000000000000000000000000000000600052602160045260246000fd5b8160040160009054906101000a900460ff1660058111156111df577f4e487b7100000000000000000000000000000000000000000000000000000000600052602160045260246000fd5b1461121f576040517f08c379a000000000000000000000000000000000000000000000000000000000815260040161121690615396565b60405180910390fd5b60016005811115611259577f4e487b7100000000000000000000000000000000000000000000000000000000600052602160045260246000fd5b8160040160006101000a81548160ff021916908360058111156112a5577f4e487b7100000000000000000000000000000000000000000000000000000000600052602160045260246000fd5b0217905550428160040160016101000a81548167ffffffffffffffff021916908367ffffffffffffffff160217905550428160040160096101000a81548167ffffffffffffffff021916908367ffffffffffffffff160217905550600d6000858152602001908152602001600020600081548092919061132490615975565b91905055507f6384bf7a01f33da67e76317c1d4f0674dae4ec673459ba8bcfef664ba4e03b7e848460016005811115611386577f4e487b7100000000000000000000000000000000000000000000000000000000600052602160045260246000fd5b604051611395939291906154b1565b60405180910390a150505050565b600a6020528060005260406000206000915090505481565b6000806002600084815260200190815260200160002060009054906101000a900473ffffffffffffffffffffffffffffffffffffffff169050600073ffffffffffffffffffffffffffffffffffffffff168173ffffffffffffffffffffffffffffffffffffffff161415611464576040517f08c379a000000000000000000000000000000000000000000000000000000000815260040161145b90615376565b60405180910390fd5b80915050919050565b6000600e600084815260200190815260200160002060030182815481106114bd577f4e487b7100000000000000000000000000000000000000000000000000000000600052603260045260246000fd5b906000526020600020906005020190503373ffffffffffffffffffffffffffffffffffffffff168160000160009054906101000a900473ffffffffffffffffffffffffffffffffffffffff1673ffffffffffffffffffffffffffffffffffffffff161461155f576040517f08c379a000000000000000000000000000000000000000000000000000000000815260040161155690615316565b60405180910390fd5b60016005811115611599577f4e487b7100000000000000000000000000000000000000000000000000000000600052602160045260246000fd5b60058111156115d1577f4e487b7100000000000000000000000000000000000000000000000000000000600052602160045260246000fd5b8160040160009054906101000a900460ff16600581111561161b577f4e487b7100000000000000000000000000000000000000000000000000000000600052602160045260246000fd5b1461165b576040517f08c379a000000000000000000000000000000000000000000000000000000000815260040161165290615216565b60405180910390fd5b600062015180600e6000868152602001908152602001600020600101546116829190615718565b905060008260040160099054906101000a900467ffffffffffffffff16426116aa91906157d7565b67ffffffffffffffff169050600082826116c49190615749565b9050808460030154101561175857600e600087815260200190815260200160002060000160009054906101000a900473ffffffffffffffffffffffffffffffffffffffff1673ffffffffffffffffffffffffffffffffffffffff166108fc85600301549081150290604051600060405180830381858888f19350505050158015611752573d6000803e3d6000fd5b5061182c565b600e600087815260200190815260200160002060000160009054906101000a900473ffffffffffffffffffffffffffffffffffffffff1673ffffffffffffffffffffffffffffffffffffffff166108fc829081150290604051600060405180830381858888f193505050501580156117d4573d6000803e3d6000fd5b503373ffffffffffffffffffffffffffffffffffffffff166108fc8286600301546117ff91906157a3565b9081150290604051600060405180830381858888f1935050505015801561182a573d6000803e3d6000fd5b505b6000846003018190555060046005811115611870577f4e487b7100000000000000000000000000000000000000000000000000000000600052602160045260246000fd5b8460040160006101000a81548160ff021916908360058111156118bc577f4e487b7100000000000000000000000000000000000000000000000000000000600052602160045260246000fd5b0217905550600d600087815260200190815260200160002060008154809291906118e590615919565b91905055507f6384bf7a01f33da67e76317c1d4f0674dae4ec673459ba8bcfef664ba4e03b7e868660046005811115611947577f4e487b7100000000000000000000000000000000000000000000000000000000600052602160045260246000fd5b604051611956939291906154b1565b60405180910390a1505050505050565b60008073ffffffffffffffffffffffffffffffffffffffff168273ffffffffffffffffffffffffffffffffffffffff1614156119d7576040517f08c379a00000000000000000000000000000000000000000000000000000000081526004016119ce90615356565b60405180910390fd5b600360008373ffffffffffffffffffffffffffffffffffffffff1673ffffffffffffffffffffffffffffffffffffffff168152602001908152602001600020549050919050565b81600e600082815260200190815260200160002060000160009054906101000a900473ffffffffffffffffffffffffffffffffffffffff1673ffffffffffffffffffffffffffffffffffffffff163373ffffffffffffffffffffffffffffffffffffffff1614611ac3576040517f08c379a0000000000000000000000000000000000000000000000000000000008152600401611aba90615256565b60405180910390fd5b6000600e60008581526020019081526020016000206003018381548110611b13577f4e487b7100000000000000000000000000000000000000000000000000000000600052603260045260246000fd5b9060005260206000209060050201905060026005811115611b5d577f4e487b7100000000000000000000000000000000000000000000000000000000600052602160045260246000fd5b8160040160006101000a81548160ff02191690836005811115611ba9577f4e487b7100000000000000000000000000000000000000000000000000000000600052602160045260246000fd5b02179055508060000160009054906101000a900473ffffffffffffffffffffffffffffffffffffffff1673ffffffffffffffffffffffffffffffffffffffff166108fc82600301549081150290604051600060405180830381858888f19350505050158015611c1c573d6000803e3d6000fd5b507f6384bf7a01f33da67e76317c1d4f0674dae4ec673459ba8bcfef664ba4e03b7e848460026005811115611c7a577f4e487b7100000000000000000000000000000000000000000000000000000000600052602160045260246000fd5b604051611c89939291906154b1565b60405180910390a150505050565b600e60008381526020019081526020016000206003016040518060e001604052803373ffffffffffffffffffffffffffffffffffffffff16815260200184815260200183815260200134815260200160006005811115611d20577f4e487b7100000000000000000000000000000000000000000000000000000000600052602160045260246000fd5b6005811115611d58577f4e487b7100000000000000000000000000000000000000000000000000000000600052602160045260246000fd5b8152602001600067ffffffffffffffff168152602001600067ffffffffffffffff16815250908060018154018082558091505060019003906000526020600020906005020160009091909190915060008201518160000160006101000a81548173ffffffffffffffffffffffffffffffffffffffff021916908373ffffffffffffffffffffffffffffffffffffffff160217905550602082015181600101556040820151816002019080519060200190611e139291906141d3565b506060820151816003015560808201518160040160006101000a81548160ff02191690836005811115611e6f577f4e487b7100000000000000000000000000000000000000000000000000000000600052602160045260246000fd5b021790555060a08201518160040160016101000a81548167ffffffffffffffff021916908367ffffffffffffffff16021790555060c08201518160040160096101000a81548167ffffffffffffffff021916908367ffffffffffffffff1602179055505050600c60008381526020019081526020016000206000815480929190611ef890615975565b91905055503373ffffffffffffffffffffffffffffffffffffffff167fd44d7bec9dcf2b4a170ef0f02f4f8c3a7d79752a6c0f47be3e55571920bcf54b83600c6000868152602001908152602001600020548434604051611f5c94939291906154e8565b60405180910390a25050565b606060018054611f7790615943565b80601f0160208091040260200160405190810160405280929190818152602001828054611fa390615943565b8015611ff05780601f10611fc557610100808354040283529160200191611ff0565b820191906000526020600020905b815481529060010190602001808311611fd357829003601f168201915b5050505050905090565b81600e600082815260200190815260200160002060000160009054906101000a900473ffffffffffffffffffffffffffffffffffffffff1673ffffffffffffffffffffffffffffffffffffffff163373ffffffffffffffffffffffffffffffffffffffff161461209f576040517f08c379a000000000000000000000000000000000000000000000000000000000815260040161209690615256565b60405180910390fd5b6000600e600085815260200190815260200160002060030183815481106120ef577f4e487b7100000000000000000000000000000000000000000000000000000000600052603260045260246000fd5b90600052602060002090600502019050600062015180600e6000878152602001908152602001600020600101546121269190615718565b905060008260040160099054906101000a900467ffffffffffffffff164261214e91906157d7565b67ffffffffffffffff169050600082826121689190615749565b905080846003015410156121c6573373ffffffffffffffffffffffffffffffffffffffff166108fc85600301549081150290604051600060405180830381858888f193505050501580156121c0573d6000803e3d6000fd5b50612288565b3373ffffffffffffffffffffffffffffffffffffffff166108fc829081150290604051600060405180830381858888f1935050505015801561220c573d6000803e3d6000fd5b508360000160009054906101000a900473ffffffffffffffffffffffffffffffffffffffff1673ffffffffffffffffffffffffffffffffffffffff166108fc82866003015461225b91906157a3565b9081150290604051600060405180830381858888f19350505050158015612286573d6000803e3d6000fd5b505b60008460030181905550600460058111156122cc577f4e487b7100000000000000000000000000000000000000000000000000000000600052602160045260246000fd5b6005811115612304577f4e487b7100000000000000000000000000000000000000000000000000000000600052602160045260246000fd5b8460040160009054906101000a900460ff16600581111561234e577f4e487b7100000000000000000000000000000000000000000000000000000000600052602160045260246000fd5b50507f6384bf7a01f33da67e76317c1d4f0674dae4ec673459ba8bcfef664ba4e03b7e8787600460058111156123ad577f4e487b7100000000000000000000000000000000000000000000000000000000600052602160045260246000fd5b6040516123bc939291906154b1565b60405180910390a1600d600088815260200190815260200160002060008154809291906123e890615919565b919050555050505050505050565b6123fe613770565b73ffffffffffffffffffffffffffffffffffffffff168273ffffffffffffffffffffffffffffffffffffffff16141561246c576040517f08c379a0000000000000000000000000000000000000000000000000000000008152600401612463906152d6565b60405180910390fd5b8060056000612479613770565b73ffffffffffffffffffffffffffffffffffffffff1673ffffffffffffffffffffffffffffffffffffffff16815260200190815260200160002060008473ffffffffffffffffffffffffffffffffffffffff1673ffffffffffffffffffffffffffffffffffffffff16815260200190815260200160002060006101000a81548160ff0219169083151502179055508173ffffffffffffffffffffffffffffffffffffffff16612526613770565b73ffffffffffffffffffffffffffffffffffffffff167f17307eab39ab6107e8899845ad3d59bd9653f200f220920489ca2b5937696c318360405161256b91906151d9565b60405180910390a35050565b612588612582613770565b83613831565b6125c7576040517f08c379a00000000000000000000000000000000000000000000000000000000081526004016125be90615476565b60405180910390fd5b6125d384848484613b6b565b50505050565b60096020528060005260406000206000915054906101000a900473ffffffffffffffffffffffffffffffffffffffff1681565b60008060009050600062015180600e60008681526020019081526020016000206001015461263a9190615718565b905060005b600c600086815260200190815260200160002054811015612807576000600e600087815260200190815260200160002060030182815481106126aa577f4e487b7100000000000000000000000000000000000000000000000000000000600052603260045260246000fd5b90600052602060002090600502019050600160058111156126f4577f4e487b7100000000000000000000000000000000000000000000000000000000600052602160045260246000fd5b600581111561272c577f4e487b7100000000000000000000000000000000000000000000000000000000600052602160045260246000fd5b8160040160009054906101000a900460ff166005811115612776577f4e487b7100000000000000000000000000000000000000000000000000000000600052602160045260246000fd5b14156127f35760008160040160099054906101000a900467ffffffffffffffff16426127a291906157d7565b67ffffffffffffffff169050600084826127bc9190615749565b905080836003015411156127dd5780866127d691906156c2565b95506127f0565b8260030154866127ed91906156c2565b95505b50505b5080806127ff90615975565b91505061263f565b508192505050919050565b606061281d82613704565b61285c576040517f08c379a0000000000000000000000000000000000000000000000000000000008152600401612853906153d6565b60405180910390fd5b600060066000848152602001908152602001600020805461287c90615943565b80601f01602080910402602001604051908101604052809291908181526020018280546128a890615943565b80156128f55780601f106128ca576101008083540402835291602001916128f5565b820191906000526020600020905b8154815290600101906020018083116128d857829003601f168201915b505050505090506000612906613bc7565b905060008151141561291c57819250505061295f565b6000825111156129515780826040516020016129399291906150d3565b6040516020818303038152906040529250505061295f565b61295a84613bde565b925050505b919050565b600d6020528060005260406000206000915090505481565b6000600e600084815260200190815260200160002060030182815481106129cc577f4e487b7100000000000000000000000000000000000000000000000000000000600052603260045260246000fd5b906000526020600020906005020190503373ffffffffffffffffffffffffffffffffffffffff168160000160009054906101000a900473ffffffffffffffffffffffffffffffffffffffff1673ffffffffffffffffffffffffffffffffffffffff1614612a6e576040517f08c379a0000000000000000000000000000000000000000000000000000000008152600401612a6590615316565b60405180910390fd5b60006005811115612aa8577f4e487b7100000000000000000000000000000000000000000000000000000000600052602160045260246000fd5b6005811115612ae0577f4e487b7100000000000000000000000000000000000000000000000000000000600052602160045260246000fd5b8160040160009054906101000a900460ff166005811115612b2a577f4e487b7100000000000000000000000000000000000000000000000000000000600052602160045260246000fd5b14612b6a576040517f08c379a0000000000000000000000000000000000000000000000000000000008152600401612b6190615396565b60405180910390fd5b60036005811115612ba4577f4e487b7100000000000000000000000000000000000000000000000000000000600052602160045260246000fd5b8160040160006101000a81548160ff02191690836005811115612bf0577f4e487b7100000000000000000000000000000000000000000000000000000000600052602160045260246000fd5b0217905550600081600301819055508060000160009054906101000a900473ffffffffffffffffffffffffffffffffffffffff1673ffffffffffffffffffffffffffffffffffffffff166108fc82600301549081150290604051600060405180830381858888f19350505050158015612c6d573d6000803e3d6000fd5b507f6384bf7a01f33da67e76317c1d4f0674dae4ec673459ba8bcfef664ba4e03b7e838360036005811115612ccb577f4e487b7100000000000000000000000000000000000000000000000000000000600052602160045260246000fd5b604051612cda939291906154b1565b60405180910390a1505050565b6060600e6000838152602001908152602001600020600301805480602002602001604051908101604052809291908181526020016000905b82821015612f3857838290600052602060002090600502016040518060e00160405290816000820160009054906101000a900473ffffffffffffffffffffffffffffffffffffffff1673ffffffffffffffffffffffffffffffffffffffff1673ffffffffffffffffffffffffffffffffffffffff16815260200160018201548152602001600282018054612db290615943565b80601f0160208091040260200160405190810160405280929190818152602001828054612dde90615943565b8015612e2b5780601f10612e0057610100808354040283529160200191612e2b565b820191906000526020600020905b815481529060010190602001808311612e0e57829003601f168201915b50505050508152602001600382015481526020016004820160009054906101000a900460ff166005811115612e89577f4e487b7100000000000000000000000000000000000000000000000000000000600052602160045260246000fd5b6005811115612ec1577f4e487b7100000000000000000000000000000000000000000000000000000000600052602160045260246000fd5b81526020016004820160019054906101000a900467ffffffffffffffff1667ffffffffffffffff1667ffffffffffffffff1681526020016004820160099054906101000a900467ffffffffffffffff1667ffffffffffffffff1667ffffffffffffffff168152505081526020019060010190612d1f565b505050509050919050565b80600e600082815260200190815260200160002060000160009054906101000a900473ffffffffffffffffffffffffffffffffffffffff1673ffffffffffffffffffffffffffffffffffffffff163373ffffffffffffffffffffffffffffffffffffffff1614612fe8576040517f08c379a0000000000000000000000000000000000000000000000000000000008152600401612fdf90615256565b60405180910390fd5b60008062015180600e6000868152602001908152602001600020600101546130109190615718565b905060005b600c6000868152602001908152602001600020548110156133ca576000600e60008781526020019081526020016000206003018281548110613080577f4e487b7100000000000000000000000000000000000000000000000000000000600052603260045260246000fd5b90600052602060002090600502019050600160058111156130ca577f4e487b7100000000000000000000000000000000000000000000000000000000600052602160045260246000fd5b6005811115613102577f4e487b7100000000000000000000000000000000000000000000000000000000600052602160045260246000fd5b8160040160009054906101000a900460ff16600581111561314c577f4e487b7100000000000000000000000000000000000000000000000000000000600052602160045260246000fd5b141561336f5760008160040160099054906101000a900467ffffffffffffffff164261317891906157d7565b67ffffffffffffffff169050600084826131929190615749565b905080836003015411156131cb578083600301546131b091906157a3565b836003018190555080866131c491906156c2565b9550613341565b600083600301819055508260030154866131e591906156c2565b9550600580811115613220577f4e487b7100000000000000000000000000000000000000000000000000000000600052602160045260246000fd5b6005811115613258577f4e487b7100000000000000000000000000000000000000000000000000000000600052602160045260246000fd5b8360040160009054906101000a900460ff1660058111156132a2577f4e487b7100000000000000000000000000000000000000000000000000000000600052602160045260246000fd5b5050600d600089815260200190815260200160002060008154809291906132c890615919565b91905055507f6384bf7a01f33da67e76317c1d4f0674dae4ec673459ba8bcfef664ba4e03b7e8885600580811115613329577f4e487b7100000000000000000000000000000000000000000000000000000000600052602160045260246000fd5b604051613338939291906154b1565b60405180910390a15b428360040160096101000a81548167ffffffffffffffff021916908367ffffffffffffffff16021790555050505b3373ffffffffffffffffffffffffffffffffffffffff166108fc859081150290604051600060405180830381858888f193505050501580156133b5573d6000803e3d6000fd5b505080806133c290615975565b915050613015565b5050505050565b6000600e6000838152602001908152602001600020600101549050919050565b60085481565b600c6020528060005260406000206000915090505481565b6000600560008473ffffffffffffffffffffffffffffffffffffffff1673ffffffffffffffffffffffffffffffffffffffff16815260200190815260200160002060008373ffffffffffffffffffffffffffffffffffffffff1673ffffffffffffffffffffffffffffffffffffffff16815260200190815260200160002060009054906101000a900460ff16905092915050565b60006134af6007613c85565b60006134bb6007613c9b565b905033600e600083815260200190815260200160002060000160006101000a81548173ffffffffffffffffffffffffffffffffffffffff021916908373ffffffffffffffffffffffffffffffffffffffff16021790555083600e60008381526020019081526020016000206001018190555082600e600083815260200190815260200160002060020160006101000a81548160ff021916908360ff160217905550336009600083815260200190815260200160002060006101000a81548173ffffffffffffffffffffffffffffffffffffffff021916908373ffffffffffffffffffffffffffffffffffffffff160217905550600a60003373ffffffffffffffffffffffffffffffffffffffff1673ffffffffffffffffffffffffffffffffffffffff16815260200190815260200160002060008154809291906135fe90615975565b91905055506000600d6000838152602001908152602001600020819055506008600081548092919061362f90615975565b919050555061363e3382613ca9565b3373ffffffffffffffffffffffffffffffffffffffff167fc5dd54e9ba2eb7e6aa8deb748a7ba9e3e25421194247cb84c1a635926e4c85d682868660405161368893929190615534565b60405180910390a28091505092915050565b60007f01ffc9a7000000000000000000000000000000000000000000000000000000007bffffffffffffffffffffffffffffffffffffffffffffffffffffffff1916827bffffffffffffffffffffffffffffffffffffffffffffffffffffffff1916149050919050565b60008073ffffffffffffffffffffffffffffffffffffffff166002600084815260200190815260200160002060009054906101000a900473ffffffffffffffffffffffffffffffffffffffff1673ffffffffffffffffffffffffffffffffffffffff1614159050919050565b600033905090565b816004600083815260200190815260200160002060006101000a81548173ffffffffffffffffffffffffffffffffffffffff021916908373ffffffffffffffffffffffffffffffffffffffff160217905550808273ffffffffffffffffffffffffffffffffffffffff166137eb836113bb565b73ffffffffffffffffffffffffffffffffffffffff167f8c5be1e5ebec7d5bd14f71427d1e84f3dd0314c0f7b2291e5b200ac8c7c3b92560405160405180910390a45050565b600061383c82613704565b61387b576040517f08c379a0000000000000000000000000000000000000000000000000000000008152600401613872906152f6565b60405180910390fd5b6000613886836113bb565b90508073ffffffffffffffffffffffffffffffffffffffff168473ffffffffffffffffffffffffffffffffffffffff1614806138f557508373ffffffffffffffffffffffffffffffffffffffff166138dd84610a47565b73ffffffffffffffffffffffffffffffffffffffff16145b806139065750613905818561340f565b5b91505092915050565b8273ffffffffffffffffffffffffffffffffffffffff1661392f826113bb565b73ffffffffffffffffffffffffffffffffffffffff1614613985576040517f08c379a000000000000000000000000000000000000000000000000000000000815260040161397c90615416565b60405180910390fd5b600073ffffffffffffffffffffffffffffffffffffffff168273ffffffffffffffffffffffffffffffffffffffff1614156139f5576040517f08c379a00000000000000000000000000000000000000000000000000000000081526004016139ec906152b6565b60405180910390fd5b613a00838383613e77565b613a0b600082613778565b6001600360008573ffffffffffffffffffffffffffffffffffffffff1673ffffffffffffffffffffffffffffffffffffffff1681526020019081526020016000206000828254613a5b91906157a3565b925050819055506001600360008473ffffffffffffffffffffffffffffffffffffffff1673ffffffffffffffffffffffffffffffffffffffff1681526020019081526020016000206000828254613ab291906156c2565b92505081905550816002600083815260200190815260200160002060006101000a81548173ffffffffffffffffffffffffffffffffffffffff021916908373ffffffffffffffffffffffffffffffffffffffff160217905550808273ffffffffffffffffffffffffffffffffffffffff168473ffffffffffffffffffffffffffffffffffffffff167fddf252ad1be2c89b69c2b068fc378daa952ba7f163c4a11628f55a4df523b3ef60405160405180910390a4505050565b613b7684848461390f565b613b8284848484613e7c565b613bc1576040517f08c379a0000000000000000000000000000000000000000000000000000000008152600401613bb890615276565b60405180910390fd5b50505050565b606060405180602001604052806000815250905090565b6060613be982613704565b613c28576040517f08c379a0000000000000000000000000000000000000000000000000000000008152600401613c1f90615436565b60405180910390fd5b6000613c32613bc7565b90506000815111613c525760405180602001604052806000815250613c7d565b80613c5c84614013565b604051602001613c6d9291906150d3565b6040516020818303038152906040525b915050919050565b6001816000016000828254019250508190555050565b600081600001549050919050565b600073ffffffffffffffffffffffffffffffffffffffff168273ffffffffffffffffffffffffffffffffffffffff161415613d19576040517f08c379a0000000000000000000000000000000000000000000000000000000008152600401613d10906153b6565b60405180910390fd5b613d2281613704565b15613d62576040517f08c379a0000000000000000000000000000000000000000000000000000000008152600401613d5990615296565b60405180910390fd5b613d6e60008383613e77565b6001600360008473ffffffffffffffffffffffffffffffffffffffff1673ffffffffffffffffffffffffffffffffffffffff1681526020019081526020016000206000828254613dbe91906156c2565b92505081905550816002600083815260200190815260200160002060006101000a81548173ffffffffffffffffffffffffffffffffffffffff021916908373ffffffffffffffffffffffffffffffffffffffff160217905550808273ffffffffffffffffffffffffffffffffffffffff16600073ffffffffffffffffffffffffffffffffffffffff167fddf252ad1be2c89b69c2b068fc378daa952ba7f163c4a11628f55a4df523b3ef60405160405180910390a45050565b505050565b6000613e9d8473ffffffffffffffffffffffffffffffffffffffff166141c0565b15614006578373ffffffffffffffffffffffffffffffffffffffff1663150b7a02613ec6613770565b8786866040518563ffffffff1660e01b8152600401613ee89493929190615112565b602060405180830381600087803b158015613f0257600080fd5b505af1925050508015613f3357506040513d601f19601f82011682018060405250810190613f309190614594565b60015b613fb6573d8060008114613f63576040519150601f19603f3d011682016040523d82523d6000602084013e613f68565b606091505b50600081511415613fae576040517f08c379a0000000000000000000000000000000000000000000000000000000008152600401613fa590615276565b60405180910390fd5b805181602001fd5b63150b7a0260e01b7bffffffffffffffffffffffffffffffffffffffffffffffffffffffff1916817bffffffffffffffffffffffffffffffffffffffffffffffffffffffff19161491505061400b565b600190505b949350505050565b6060600082141561405b576040518060400160405280600181526020017f300000000000000000000000000000000000000000000000000000000000000081525090506141bb565b600082905060005b6000821461408d57808061407690615975565b915050600a826140869190615718565b9150614063565b60008167ffffffffffffffff8111156140cf577f4e487b7100000000000000000000000000000000000000000000000000000000600052604160045260246000fd5b6040519080825280601f01601f1916602001820160405280156141015781602001600182028036833780820191505090505b5090505b600085146141b45760018261411a91906157a3565b9150600a8561412991906159be565b603061413591906156c2565b60f81b818381518110614171577f4e487b7100000000000000000000000000000000000000000000000000000000600052603260045260246000fd5b60200101907effffffffffffffffffffffffffffffffffffffffffffffffffffffffffffff1916908160001a905350600a856141ad9190615718565b9450614105565b8093505050505b919050565b600080823b905060008111915050919050565b8280546141df90615943565b90600052602060002090601f0160209004810192826142015760008555614248565b82601f1061421a57805160ff1916838001178555614248565b82800160010185558215614248579182015b8281111561424757825182559160200191906001019061422c565b5b5090506142559190614259565b5090565b5b8082111561427257600081600090555060010161425a565b5090565b60006142896142848461559c565b61556b565b9050828152602081018484840111156142a157600080fd5b6142ac8482856158d7565b509392505050565b60006142c76142c2846155cc565b61556b565b9050828152602081018484840111156142df57600080fd5b6142ea8482856158d7565b509392505050565b60008135905061430181615aff565b92915050565b60008135905061431681615b16565b92915050565b60008135905061432b81615b2d565b92915050565b60008151905061434081615b2d565b92915050565b600082601f83011261435757600080fd5b8135614367848260208601614276565b91505092915050565b600082601f83011261438157600080fd5b81356143918482602086016142b4565b91505092915050565b6000813590506143a981615b44565b92915050565b6000813590506143be81615b5b565b92915050565b6000602082840312156143d657600080fd5b60006143e4848285016142f2565b91505092915050565b6000806040838503121561440057600080fd5b600061440e858286016142f2565b925050602061441f858286016142f2565b9150509250929050565b60008060006060848603121561443e57600080fd5b600061444c868287016142f2565b935050602061445d868287016142f2565b925050604061446e8682870161439a565b9150509250925092565b6000806000806080858703121561448e57600080fd5b600061449c878288016142f2565b94505060206144ad878288016142f2565b93505060406144be8782880161439a565b925050606085013567ffffffffffffffff8111156144db57600080fd5b6144e787828801614346565b91505092959194509250565b6000806040838503121561450657600080fd5b6000614514858286016142f2565b925050602061452585828601614307565b9150509250929050565b6000806040838503121561454257600080fd5b6000614550858286016142f2565b92505060206145618582860161439a565b9150509250929050565b60006020828403121561457d57600080fd5b600061458b8482850161431c565b91505092915050565b6000602082840312156145a657600080fd5b60006145b484828501614331565b91505092915050565b6000602082840312156145cf57600080fd5b60006145dd8482850161439a565b91505092915050565b600080604083850312156145f957600080fd5b60006146078582860161439a565b925050602083013567ffffffffffffffff81111561462457600080fd5b61463085828601614370565b9150509250929050565b6000806040838503121561464d57600080fd5b600061465b8582860161439a565b925050602061466c8582860161439a565b9150509250929050565b6000806040838503121561468957600080fd5b60006146978582860161439a565b92505060206146a8858286016143af565b9150509250929050565b60006146be8383614fec565b905092915050565b60006146d28383615088565b60208301905092915050565b6146e78161580b565b82525050565b6146f68161580b565b82525050565b60006147078261561c565b6147118185615662565b935083602082028501614723856155fc565b8060005b8581101561475f578484038952815161474085826146b2565b945061474b83615648565b925060208a01995050600181019050614727565b50829750879550505050505092915050565b600061477c82615627565b6147868185615673565b93506147918361560c565b8060005b838110156147c25781516147a988826146c6565b97506147b483615655565b925050600181019050614795565b5085935050505092915050565b6147d88161581d565b82525050565b60006147e982615632565b6147f38185615684565b93506148038185602086016158e6565b61480c81615ada565b840191505092915050565b614820816158b3565b82525050565b61482f816158b3565b82525050565b60006148408261563d565b61484a8185615695565b935061485a8185602086016158e6565b61486381615ada565b840191505092915050565b60006148798261563d565b61488381856156a6565b93506148938185602086016158e6565b61489c81615ada565b840191505092915050565b60006148b28261563d565b6148bc81856156b7565b93506148cc8185602086016158e6565b80840191505092915050565b60006148e56016836156a6565b91507f52657175657374206973206e6f742072756e6e696e67000000000000000000006000830152602082019050919050565b60006149256022836156a6565b91507f5468697320616473706f742069732066756c6c206f662072756e6e696e67206160008301527f64730000000000000000000000000000000000000000000000000000000000006020830152604082019050919050565b600061498b6015836156a6565b91507f53656e646572206e6f7420617574686f72697a656400000000000000000000006000830152602082019050919050565b60006149cb6032836156a6565b91507f4552433732313a207472616e7366657220746f206e6f6e20455243373231526560008301527f63656976657220696d706c656d656e74657200000000000000000000000000006020830152604082019050919050565b6000614a31601c836156a6565b91507f4552433732313a20746f6b656e20616c7265616479206d696e746564000000006000830152602082019050919050565b6000614a716024836156a6565b91507f4552433732313a207472616e7366657220746f20746865207a65726f2061646460008301527f72657373000000000000000000000000000000000000000000000000000000006020830152604082019050919050565b6000614ad76019836156a6565b91507f4552433732313a20617070726f766520746f2063616c6c6572000000000000006000830152602082019050919050565b6000614b17602c836156a6565b91507f4552433732313a206f70657261746f7220717565727920666f72206e6f6e657860008301527f697374656e7420746f6b656e00000000000000000000000000000000000000006020830152604082019050919050565b6000614b7d6020836156a6565b91507f4d75737420626520746865206f776e6572206f662074686520726571756573746000830152602082019050919050565b6000614bbd6038836156a6565b91507f4552433732313a20617070726f76652063616c6c6572206973206e6f74206f7760008301527f6e6572206e6f7220617070726f76656420666f7220616c6c00000000000000006020830152604082019050919050565b6000614c23602a836156a6565b91507f4552433732313a2062616c616e636520717565727920666f7220746865207a6560008301527f726f2061646472657373000000000000000000000000000000000000000000006020830152604082019050919050565b6000614c896029836156a6565b91507f4552433732313a206f776e657220717565727920666f72206e6f6e657869737460008301527f656e7420746f6b656e00000000000000000000000000000000000000000000006020830152604082019050919050565b6000614cef6022836156a6565b91507f526571756573742068617320616c7265616479206265656e2070726f6365737360008301527f65640000000000000000000000000000000000000000000000000000000000006020830152604082019050919050565b6000614d556020836156a6565b91507f4552433732313a206d696e7420746f20746865207a65726f20616464726573736000830152602082019050919050565b6000614d956031836156a6565b91507f45524337323155524953746f726167653a2055524920717565727920666f722060008301527f6e6f6e6578697374656e7420746f6b656e0000000000000000000000000000006020830152604082019050919050565b6000614dfb602c836156a6565b91507f4552433732313a20617070726f76656420717565727920666f72206e6f6e657860008301527f697374656e7420746f6b656e00000000000000000000000000000000000000006020830152604082019050919050565b6000614e616029836156a6565b91507f4552433732313a207472616e73666572206f6620746f6b656e2074686174206960008301527f73206e6f74206f776e00000000000000000000000000000000000000000000006020830152604082019050919050565b6000614ec7602f836156a6565b91507f4552433732314d657461646174613a2055524920717565727920666f72206e6f60008301527f6e6578697374656e7420746f6b656e00000000000000000000000000000000006020830152604082019050919050565b6000614f2d6021836156a6565b91507f4552433732313a20617070726f76616c20746f2063757272656e74206f776e6560008301527f72000000000000000000000000000000000000000000000000000000000000006020830152604082019050919050565b6000614f936031836156a6565b91507f4552433732313a207472616e736665722063616c6c6572206973206e6f74206f60008301527f776e6572206e6f7220617070726f7665640000000000000000000000000000006020830152604082019050919050565b600060e08301600083015161500460008601826146de565b5060208301516150176020860182615088565b506040830151848203604086015261502f8282614835565b91505060608301516150446060860182615088565b5060808301516150576080860182614817565b5060a083015161506a60a08601826150a6565b5060c083015161507d60c08601826150a6565b508091505092915050565b61509181615888565b82525050565b6150a081615888565b82525050565b6150af81615892565b82525050565b6150be816158c5565b82525050565b6150cd816158a6565b82525050565b60006150df82856148a7565b91506150eb82846148a7565b91508190509392505050565b600060208201905061510c60008301846146ed565b92915050565b600060808201905061512760008301876146ed565b61513460208301866146ed565b6151416040830185615097565b818103606083015261515381846147de565b905095945050505050565b600060608201905061517360008301866146ed565b6151806020830185615097565b61518d60408301846150c4565b949350505050565b600060208201905081810360008301526151af81846146fc565b905092915050565b600060208201905081810360008301526151d18184614771565b905092915050565b60006020820190506151ee60008301846147cf565b92915050565b6000602082019050818103600083015261520e818461486e565b905092915050565b6000602082019050818103600083015261522f816148d8565b9050919050565b6000602082019050818103600083015261524f81614918565b9050919050565b6000602082019050818103600083015261526f8161497e565b9050919050565b6000602082019050818103600083015261528f816149be565b9050919050565b600060208201905081810360008301526152af81614a24565b9050919050565b600060208201905081810360008301526152cf81614a64565b9050919050565b600060208201905081810360008301526152ef81614aca565b9050919050565b6000602082019050818103600083015261530f81614b0a565b9050919050565b6000602082019050818103600083015261532f81614b70565b9050919050565b6000602082019050818103600083015261534f81614bb0565b9050919050565b6000602082019050818103600083015261536f81614c16565b9050919050565b6000602082019050818103600083015261538f81614c7c565b9050919050565b600060208201905081810360008301526153af81614ce2565b9050919050565b600060208201905081810360008301526153cf81614d48565b9050919050565b600060208201905081810360008301526153ef81614d88565b9050919050565b6000602082019050818103600083015261540f81614dee565b9050919050565b6000602082019050818103600083015261542f81614e54565b9050919050565b6000602082019050818103600083015261544f81614eba565b9050919050565b6000602082019050818103600083015261546f81614f20565b9050919050565b6000602082019050818103600083015261548f81614f86565b9050919050565b60006020820190506154ab6000830184615097565b92915050565b60006060820190506154c66000830186615097565b6154d36020830185615097565b6154e06040830184614826565b949350505050565b60006080820190506154fd6000830187615097565b61550a6020830186615097565b818103604083015261551c818561486e565b905061552b6060830184615097565b95945050505050565b60006060820190506155496000830186615097565b6155566020830185615097565b61556360408301846150b5565b949350505050565b6000604051905081810181811067ffffffffffffffff8211171561559257615591615aab565b5b8060405250919050565b600067ffffffffffffffff8211156155b7576155b6615aab565b5b601f19601f8301169050602081019050919050565b600067ffffffffffffffff8211156155e7576155e6615aab565b5b601f19601f8301169050602081019050919050565b6000819050602082019050919050565b6000819050602082019050919050565b600081519050919050565b600081519050919050565b600081519050919050565b600081519050919050565b6000602082019050919050565b6000602082019050919050565b600082825260208201905092915050565b600082825260208201905092915050565b600082825260208201905092915050565b600082825260208201905092915050565b600082825260208201905092915050565b600081905092915050565b60006156cd82615888565b91506156d883615888565b9250827fffffffffffffffffffffffffffffffffffffffffffffffffffffffffffffffff0382111561570d5761570c6159ef565b5b828201905092915050565b600061572382615888565b915061572e83615888565b92508261573e5761573d615a1e565b5b828204905092915050565b600061575482615888565b915061575f83615888565b9250817fffffffffffffffffffffffffffffffffffffffffffffffffffffffffffffffff0483118215151615615798576157976159ef565b5b828202905092915050565b60006157ae82615888565b91506157b983615888565b9250828210156157cc576157cb6159ef565b5b828203905092915050565b60006157e282615892565b91506157ed83615892565b925082821015615800576157ff6159ef565b5b828203905092915050565b600061581682615868565b9050919050565b60008115159050919050565b60007fffffffff0000000000000000000000000000000000000000000000000000000082169050919050565b600081905061586382615aeb565b919050565b600073ffffffffffffffffffffffffffffffffffffffff82169050919050565b6000819050919050565b600067ffffffffffffffff82169050919050565b600060ff82169050919050565b60006158be82615855565b9050919050565b60006158d0826158a6565b9050919050565b82818337600083830152505050565b60005b838110156159045780820151818401526020810190506158e9565b83811115615913576000848401525b50505050565b600061592482615888565b91506000821415615938576159376159ef565b5b600182039050919050565b6000600282049050600182168061595b57607f821691505b6020821081141561596f5761596e615a7c565b5b50919050565b600061598082615888565b91507fffffffffffffffffffffffffffffffffffffffffffffffffffffffffffffffff8214156159b3576159b26159ef565b5b600182019050919050565b60006159c982615888565b91506159d483615888565b9250826159e4576159e3615a1e565b5b828206905092915050565b7f4e487b7100000000000000000000000000000000000000000000000000000000600052601160045260246000fd5b7f4e487b7100000000000000000000000000000000000000000000000000000000600052601260045260246000fd5b7f4e487b7100000000000000000000000000000000000000000000000000000000600052602160045260246000fd5b7f4e487b7100000000000000000000000000000000000000000000000000000000600052602260045260246000fd5b7f4e487b7100000000000000000000000000000000000000000000000000000000600052604160045260246000fd5b6000601f19601f8301169050919050565b60068110615afc57615afb615a4d565b5b50565b615b088161580b565b8114615b1357600080fd5b50565b615b1f8161581d565b8114615b2a57600080fd5b50565b615b3681615829565b8114615b4157600080fd5b50565b615b4d81615888565b8114615b5857600080fd5b50565b615b64816158a6565b8114615b6f57600080fd5b5056fea26469706673582212201e979484bcbd6989e93c841434ad98721084bce3b240f6859cd05e1c00518bb064736f6c63430008000033",
  "immutableReferences": {},
  "source": "pragma solidity ^0.8.0;\n\nimport \"@openzeppelin/contracts/token/ERC721/extensions/ERC721URIStorage.sol\";\nimport \"@openzeppelin/contracts/utils/Counters.sol\";\n\ncontract Adspot is ERC721URIStorage {\n\n  /// Todo: add an AdMarket Fee\n  /// Todo: Handle URL, NFT, Decentralised Storage?\n  /// Todo: Add information in AdSpot struct (size, location, traffic...)\n\n  using Counters for Counters.Counter;\n    Counters.Counter private _adspotIds;\n\n  uint public adspotCount;\n\n  enum Status {\n    Pending,\n    Accepted,\n    Rejected,\n    Cancelled,\n    Terminated,\n    Completed\n  }\n\n  struct AdSpot {\n    address owner;\n    uint256 pricePerDay;\n    uint8 maxAds;\n    Request[] requests;\n  }\n\n  struct Request {\n    address requester;\n    uint256 adspotId;\n    string adURI;\n    uint256 balance;\n    Status requestStatus;\n    uint64 approvedOnTimestamp;\n    uint64 lastWithdrawnTimestamp;\n  }\n\n  mapping(uint => address) public adSpotToOwner;\n  mapping(address => uint) public ownerAdSpotCount;\n  mapping(address => uint) public adSpotOwnerBalance;\n\n  mapping(uint => uint) public requestsInAdspot;\n  mapping(uint => uint) public runningAdsInAdspot;\n\n  mapping(uint => AdSpot) public idToAdSpot;\n\n  event newAdspot(uint adspotId, address indexed owner, uint pricePerDay, uint maxAds);\n  event newRequest(uint adspotId, uint requestId, address indexed requester, string adURI, uint balance);\n  event statusUpdate(uint adspotId, uint requestId, Status status);\n\n  constructor() ERC721(\"Adspot\", \"ADS\") public {}\n\n  modifier onlyOwnerOf(uint _adspotId) {\n    require(msg.sender == idToAdSpot[_adspotId].owner, \"Sender not authorized\");\n    _;\n  }\n\n  /// Adspot Owner ///\n\n  /// @dev Anyone can Mint a new Adspot\n  function create(uint256 _price, uint8 _maxAds) public returns (uint256) {\n    _adspotIds.increment();\n    uint _id = _adspotIds.current();\n\n    idToAdSpot[_id].owner = msg.sender;\n    idToAdSpot[_id].pricePerDay = _price;\n    idToAdSpot[_id].maxAds = _maxAds;\n\n    adSpotToOwner[_id] = msg.sender;\n    ownerAdSpotCount[msg.sender]++;\n    runningAdsInAdspot[_id] = 0;\n    adspotCount++;\n\n    _mint(msg.sender, _id);\n    emit newAdspot(_id, msg.sender, _price, _maxAds);\n    return _id;\n  }\n\n  /// @dev Adspot Owner must Approve requests for the Ad to start\n  function approve(uint256 adspotId, uint requestId) public onlyOwnerOf(adspotId) {\n    require(runningAdsInAdspot[adspotId] < idToAdSpot[adspotId].maxAds, 'This adspot is full of running ads');\n    Request storage _request = idToAdSpot[adspotId].requests[requestId];\n    require(_request.requestStatus == Status(0), 'Request has already been processed');\n    _request.requestStatus = Status(1);\n    _request.approvedOnTimestamp = uint64(block.timestamp);\n    _request.lastWithdrawnTimestamp = uint64(block.timestamp);\n    runningAdsInAdspot[adspotId]++;\n    emit statusUpdate(adspotId, requestId, Status(1));\n  }\n\n  /// @dev Refuse the request and pay back Request's owner\n  function refuse(uint256 adspotId, uint requestId) public onlyOwnerOf(adspotId) {\n    Request storage _request = idToAdSpot[adspotId].requests[requestId];\n    _request.requestStatus = Status(2);\n    payable(_request.requester).transfer(_request.balance);\n    emit statusUpdate(adspotId, requestId, Status(2));\n  }\n\n  /// @dev Set the URI of the Adspot\n  function setAdSpotURI(uint256 adspotId, string memory _tokenURI) internal {\n    _setTokenURI(adspotId, _tokenURI);\n  }\n\n  /// @dev Set Adspot Price\n  function setAdSpotPrice(uint adspotId, uint _newPrice) public onlyOwnerOf(adspotId) {\n    idToAdSpot[adspotId].pricePerDay = _newPrice;\n  }\n\n  /// @dev Owner can Withdraw the spent balance of ads in an Adspot\n  function withdrawBalance(uint adspotId) public onlyOwnerOf(adspotId) {\n    uint _toWithdraw = 0;\n    uint _pricePerSecond = idToAdSpot[adspotId].pricePerDay / 86400;\n\n    for (uint i = 0; i < requestsInAdspot[adspotId]; i++) {\n      Request storage _request = idToAdSpot[adspotId].requests[i];\n      if (_request.requestStatus == Status(1)) {\n\n        uint timeDiff = uint64(block.timestamp) - uint64(_request.lastWithdrawnTimestamp);\n        uint balanceDiff = timeDiff * _pricePerSecond;\n\n        if (_request.balance > balanceDiff) {\n          _request.balance = _request.balance - balanceDiff;\n          _toWithdraw = _toWithdraw + balanceDiff;\n        } else {\n          _request.balance = 0;\n          _toWithdraw = _toWithdraw + _request.balance;\n          _request.requestStatus == Status(5);\n          runningAdsInAdspot[adspotId]--;\n          emit statusUpdate(adspotId, i, Status(5));\n        }\n\n        _request.lastWithdrawnTimestamp = uint64(block.timestamp);\n      }\n      payable(msg.sender).transfer(_toWithdraw);\n    }\n  }\n\n  /// @dev Withdraw consummed balance and payback the remaining balance to request's owner\n  function terminate(uint256 adspotId, uint requestId) public onlyOwnerOf(adspotId) {\n    Request storage _request = idToAdSpot[adspotId].requests[requestId];\n    uint _pricePerSecond = idToAdSpot[adspotId].pricePerDay / 86400;\n    uint timeDiff = uint64(block.timestamp) - uint64(_request.lastWithdrawnTimestamp);\n    uint balanceDiff = timeDiff * _pricePerSecond;\n\n    if (_request.balance < balanceDiff) {\n      payable(msg.sender).transfer(_request.balance);\n    } else {\n      payable(msg.sender).transfer(balanceDiff);\n      payable(_request.requester).transfer(_request.balance - balanceDiff);\n    }\n\n    _request.balance = 0;\n    _request.requestStatus == Status(4);\n    emit statusUpdate(adspotId, requestId, Status(4));\n    runningAdsInAdspot[adspotId]--;\n  }\n\n  /// @dev Calculate the current due balance for any specific Adspot\n  function calculateWithdrawBalance(uint adspotId) external view returns (uint256) {\n    uint256 _availableToWithdraw = 0;\n    uint _pricePerSecond = idToAdSpot[adspotId].pricePerDay / 86400;\n\n    for (uint i = 0; i < requestsInAdspot[adspotId]; i++) {\n      Request storage _request = idToAdSpot[adspotId].requests[i];\n      if (_request.requestStatus == Status(1)) {\n        uint timeDiff = uint64(block.timestamp) - uint64(_request.lastWithdrawnTimestamp);\n        uint balanceDiff = timeDiff * _pricePerSecond;\n\n        if (_request.balance > balanceDiff) {\n          _availableToWithdraw = _availableToWithdraw + balanceDiff;\n        } else {\n          _availableToWithdraw = _availableToWithdraw + _request.balance;\n        }\n      }\n    }\n    return _availableToWithdraw;\n  }\n\n\n  /// Requester Only ///\n\n  /// @dev Request a new ad in an Adspot by proposing an adURI (containing formatted ad information) and setting a balance\n  function request(uint256 adspotId, string memory adURI) public payable {\n    idToAdSpot[adspotId].requests.push(Request(msg.sender, adspotId, adURI, msg.value, Status(0), 0, 0));\n    requestsInAdspot[adspotId]++;\n    emit newRequest(adspotId, requestsInAdspot[adspotId], msg.sender, adURI, msg.value);\n  }\n\n  /// @dev Allow requester to cancel its pending request and get refunded\n  function cancelRequest(uint256 adspotId, uint requestId) public {\n    Request storage _request = idToAdSpot[adspotId].requests[requestId];\n    require(_request.requester == msg.sender, 'Must be the owner of the request');\n    require(_request.requestStatus == Status(0), 'Request has already been processed');\n    _request.requestStatus = Status(3);\n    _request.balance = 0;\n    payable(_request.requester).transfer(_request.balance);\n    emit statusUpdate(adspotId, requestId, Status(3));\n  }\n\n  /// @dev Allow requester to cancel its running request and get refunded the difference\n  function terminateRequest(uint256 adspotId, uint requestId) public {\n    Request storage _request = idToAdSpot[adspotId].requests[requestId];\n    require(_request.requester == msg.sender, 'Must be the owner of the request');\n    require(_request.requestStatus == Status(1), 'Request is not running');\n\n    uint _pricePerSecond = idToAdSpot[adspotId].pricePerDay / 86400;\n    uint timeDiff = uint64(block.timestamp) - uint64(_request.lastWithdrawnTimestamp);\n    uint balanceDiff = timeDiff * _pricePerSecond;\n\n    if (_request.balance < balanceDiff) {\n      payable(idToAdSpot[adspotId].owner).transfer(_request.balance);\n    } else {\n      payable(idToAdSpot[adspotId].owner).transfer(balanceDiff);\n      payable(msg.sender).transfer(_request.balance - balanceDiff);\n    }\n\n    _request.balance = 0;\n    _request.requestStatus = Status(4);\n    runningAdsInAdspot[adspotId]--;\n    emit statusUpdate(adspotId, requestId, Status(4));\n  }\n\n  /// Utils ///\n\n  /// @dev Returns all requests in an Adspot\n  function getRequests(uint256 adspotId) external view returns (Request[] memory) {\n    return idToAdSpot[adspotId].requests;\n  }\n\n  /// @dev Returns specific request balance\n  function getBalance(uint256 adspotId, uint256 requestId) external view returns (uint256) {\n    Request storage _request = idToAdSpot[adspotId].requests[requestId];\n    return _request.balance;\n  }\n\n  /// @dev Returns Price of an Adspot\n  function getPrice(uint256 adspotId) external view returns (uint256) {\n    return idToAdSpot[adspotId].pricePerDay;\n  }\n\n  /// @dev Get Adspots per Owners\n  function getAdSpotsByOwner(address _owner) external view returns(uint[] memory) {\n    uint[] memory result = new uint[](ownerAdSpotCount[_owner]);\n    uint counter = 0;\n    for (uint i = 0; i < adspotCount; i++) {\n      if (adSpotToOwner[i] == _owner) {\n        result[counter] = i;\n        counter++;\n      }\n    }\n    return result;\n  }\n\n}\n",
  "sourcePath": "/Users/guillaumedesa/Documents/eth/adv-auction/contracts/Adspot.sol",
  "compiler": {
    "name": "solc",
    "version": "0.8.0+commit.c7dfd78e.Emscripten.clang"
  },
  "schemaVersion": "3.3.4",
  "updatedAt": "2021-07-09T07:36:14.904Z",
  "devdoc": {
    "kind": "dev",
    "methods": {
      "approve(address,uint256)": {
        "details": "See {IERC721-approve}."
      },
      "approve(uint256,uint256)": {
        "details": "Adspot Owner must Approve requests for the Ad to start"
      },
      "balanceOf(address)": {
        "details": "See {IERC721-balanceOf}."
      },
      "calculateWithdrawBalance(uint256)": {
        "details": "Calculate the current due balance for any specific Adspot"
      },
      "cancelRequest(uint256,uint256)": {
        "details": "Allow requester to cancel its pending request and get refunded"
      },
      "create(uint256,uint8)": {
        "details": "Anyone can Mint a new Adspot"
      },
      "getAdSpotsByOwner(address)": {
        "details": "Get Adspots per Owners"
      },
      "getApproved(uint256)": {
        "details": "See {IERC721-getApproved}."
      },
      "getBalance(uint256,uint256)": {
        "details": "Returns specific request balance"
      },
      "getPrice(uint256)": {
        "details": "Returns Price of an Adspot"
      },
      "getRequests(uint256)": {
        "details": "Returns all requests in an Adspot"
      },
      "isApprovedForAll(address,address)": {
        "details": "See {IERC721-isApprovedForAll}."
      },
      "name()": {
        "details": "See {IERC721Metadata-name}."
      },
      "ownerOf(uint256)": {
        "details": "See {IERC721-ownerOf}."
      },
      "refuse(uint256,uint256)": {
        "details": "Refuse the request and pay back Request's owner"
      },
      "request(uint256,string)": {
        "details": "Request a new ad in an Adspot by proposing an adURI (containing formatted ad information) and setting a balance"
      },
      "safeTransferFrom(address,address,uint256)": {
        "details": "See {IERC721-safeTransferFrom}."
      },
      "safeTransferFrom(address,address,uint256,bytes)": {
        "details": "See {IERC721-safeTransferFrom}."
      },
      "setAdSpotPrice(uint256,uint256)": {
        "details": "Set Adspot Price"
      },
      "setApprovalForAll(address,bool)": {
        "details": "See {IERC721-setApprovalForAll}."
      },
      "supportsInterface(bytes4)": {
        "details": "See {IERC165-supportsInterface}."
      },
      "symbol()": {
        "details": "See {IERC721Metadata-symbol}."
      },
      "terminate(uint256,uint256)": {
        "details": "Withdraw consummed balance and payback the remaining balance to request's owner"
      },
      "terminateRequest(uint256,uint256)": {
        "details": "Allow requester to cancel its running request and get refunded the difference"
      },
      "tokenURI(uint256)": {
        "details": "See {IERC721Metadata-tokenURI}."
      },
      "transferFrom(address,address,uint256)": {
        "details": "See {IERC721-transferFrom}."
      },
      "withdrawBalance(uint256)": {
        "details": "Owner can Withdraw the spent balance of ads in an Adspot"
      }
    },
    "version": 1
  },
  "userdoc": {
    "kind": "user",
    "methods": {},
    "version": 1
  }
}